{
  "transactions": [
    {
      "hash": "0xadb637f3d7d9e6f395c0f0891950038209de1ca2f2a520a3fc79c6a231e895fb",
      "transactionType": "CALL",
      "contractName": null,
      "contractAddress": "0x6638e9cf20d5799f645d8fd0a3f7d5f07b4a02c7",
      "function": "setMapDimensions(uint256,uint256)",
      "arguments": [
        "10000",
        "10000"
      ],
      "transaction": {
        "from": "0xf471539c814e59323cce676435067470565e38fa",
        "to": "0x6638e9cf20d5799f645d8fd0a3f7d5f07b4a02c7",
        "gas": "0xc103",
        "value": "0x0",
        "input": "0x5b2f9cc300000000000000000000000000000000000000000000000000000000000027100000000000000000000000000000000000000000000000000000000000002710",
        "nonce": "0x1f1",
        "chainId": "0x14a34"
      },
      "additionalContracts": [],
      "isFixedGasLimit": false
    },
    {
      "hash": "0xa8f8f004505cc2cbbbe71f345bd61a5a2bb7ac1d4c0ff9cbb7f20f01c5256e6e",
      "transactionType": "CALL",
      "contractName": null,
      "contractAddress": "0x6638e9cf20d5799f645d8fd0a3f7d5f07b4a02c7",
      "function": "setMintIntervalBlocks(uint256)",
      "arguments": [
        "100"
      ],
      "transaction": {
        "from": "0xf471539c814e59323cce676435067470565e38fa",
        "to": "0x6638e9cf20d5799f645d8fd0a3f7d5f07b4a02c7",
        "gas": "0x9b35",
        "value": "0x0",
        "input": "0xa516dda50000000000000000000000000000000000000000000000000000000000000064",
        "nonce": "0x1f2",
        "chainId": "0x14a34"
      },
      "additionalContracts": [],
      "isFixedGasLimit": false
    },
    {
      "hash": "0xe6c4b1128a1566a11e6fc8472be06817d27f2e039d987b56645527a074c8cec3",
      "transactionType": "CALL",
      "contractName": null,
      "contractAddress": "0x6638e9cf20d5799f645d8fd0a3f7d5f07b4a02c7",
      "function": "setMintAmount(uint256)",
      "arguments": [
        "50000000000000000000"
      ],
      "transaction": {
        "from": "0xf471539c814e59323cce676435067470565e38fa",
        "to": "0x6638e9cf20d5799f645d8fd0a3f7d5f07b4a02c7",
        "gas": "0x9bbc",
        "value": "0x0",
        "input": "0xc7cd997f000000000000000000000000000000000000000000000002b5e3af16b1880000",
        "nonce": "0x1f3",
        "chainId": "0x14a34"
      },
      "additionalContracts": [],
      "isFixedGasLimit": false
    },
    {
      "hash": "0x4292c19a6be85a517523e24e964210ee7be8330624debae090a4b7b4ba53813c",
      "transactionType": "CALL",
      "contractName": null,
      "contractAddress": "0x6638e9cf20d5799f645d8fd0a3f7d5f07b4a02c7",
      "function": "setStabilizationBlocks(uint256)",
      "arguments": [
        "4000"
      ],
      "transaction": {
        "from": "0xf471539c814e59323cce676435067470565e38fa",
        "to": "0x6638e9cf20d5799f645d8fd0a3f7d5f07b4a02c7",
        "gas": "0x9a35",
        "value": "0x0",
        "input": "0x51aaa4770000000000000000000000000000000000000000000000000000000000000fa0",
        "nonce": "0x1f4",
        "chainId": "0x14a34"
      },
      "additionalContracts": [],
      "isFixedGasLimit": false
    },
    {
      "hash": "0x9e30241389817513818fa7336b7f627617d03734234fb424cb1b46c0b0761ea6",
      "transactionType": "CALL",
      "contractName": null,
      "contractAddress": "0x6638e9cf20d5799f645d8fd0a3f7d5f07b4a02c7",
      "function": "setCraftDurationBlocks(uint256)",
      "arguments": [
        "3600"
      ],
      "transaction": {
        "from": "0xf471539c814e59323cce676435067470565e38fa",
        "to": "0x6638e9cf20d5799f645d8fd0a3f7d5f07b4a02c7",
        "gas": "0x9a15",
        "value": "0x0",
        "input": "0x3a266efb0000000000000000000000000000000000000000000000000000000000000e10",
        "nonce": "0x1f5",
        "chainId": "0x14a34"
      },
      "additionalContracts": [],
      "isFixedGasLimit": false
    },
    {
      "hash": "0xcfb4dc6bf27e1a8f37bf9fa7793549bbf65cae1a1306dcaa3a3ad5b70335ef8e",
      "transactionType": "CALL",
      "contractName": null,
      "contractAddress": "0x6638e9cf20d5799f645d8fd0a3f7d5f07b4a02c7",
      "function": "setHalvingIntervalBlocks(uint256)",
      "arguments": [
        "6048000"
      ],
      "transaction": {
        "from": "0xf471539c814e59323cce676435067470565e38fa",
        "to": "0x6638e9cf20d5799f645d8fd0a3f7d5f07b4a02c7",
        "gas": "0x9aae",
        "value": "0x0",
        "input": "0x8c27639e00000000000000000000000000000000000000000000000000000000005c4900",
        "nonce": "0x1f6",
        "chainId": "0x14a34"
      },
      "additionalContracts": [],
      "isFixedGasLimit": false
    },
    {
      "hash": "0x11689f8d704c56876eba36fd419fd10800978dd38f1aefa8d241517cc05931c6",
      "transactionType": "CALL",
      "contractName": null,
      "contractAddress": "0x6638e9cf20d5799f645d8fd0a3f7d5f07b4a02c7",
      "function": "setLandPrice(uint256)",
      "arguments": [
        "100000000000000000000"
      ],
      "transaction": {
        "from": "0xf471539c814e59323cce676435067470565e38fa",
        "to": "0x6638e9cf20d5799f645d8fd0a3f7d5f07b4a02c7",
        "gas": "0x9a2c",
        "value": "0x0",
        "input": "0x022565f10000000000000000000000000000000000000000000000056bc75e2d63100000",
        "nonce": "0x1f7",
        "chainId": "0x14a34"
      },
      "additionalContracts": [],
      "isFixedGasLimit": false
    },
    {
      "hash": "0x76ac5bc81879b3e122f0563d37660b76bfec0e5d44f38911bd45065f6483bd6b",
      "transactionType": "CALL",
      "contractName": null,
      "contractAddress": "0x385cc0441832620f1c157f9879ef421802b8f57f",
      "function": "setResourcePoint(uint256,uint256,uint256,uint256)",
      "arguments": [
        "1000",
        "1",
        "3000",
        "4000"
      ],
      "transaction": {
        "from": "0xf471539c814e59323cce676435067470565e38fa",
        "to": "0x385cc0441832620f1c157f9879ef421802b8f57f",
        "gas": "0xd5c7",
        "value": "0x0",
        "input": "0x6b0cbef800000000000000000000000000000000000000000000000000000000000003e800000000000000000000000000000000000000000000000000000000000000010000000000000000000000000000000000000000000000000000000000000bb80000000000000000000000000000000000000000000000000000000000000fa0",
        "nonce": "0x1f8",
        "chainId": "0x14a34"
      },
      "additionalContracts": [],
      "isFixedGasLimit": false
    },
    {
      "hash": "0xefea630ecc65871109f71e1275423c622b69249dfcf8f3554cbdd9895757119b",
      "transactionType": "CALL",
      "contractName": null,
      "contractAddress": "0x385cc0441832620f1c157f9879ef421802b8f57f",
      "function": "setResourcePoint(uint256,uint256,uint256,uint256)",
      "arguments": [
        "800",
        "2",
        "8000",
        "8000"
      ],
      "transaction": {
        "from": "0xf471539c814e59323cce676435067470565e38fa",
        "to": "0x385cc0441832620f1c157f9879ef421802b8f57f",
        "gas": "0xd5c7",
        "value": "0x0",
        "input": "0x6b0cbef8000000000000000000000000000000000000000000000000000000000000032000000000000000000000000000000000000000000000000000000000000000020000000000000000000000000000000000000000000000000000000000001f400000000000000000000000000000000000000000000000000000000000001f40",
        "nonce": "0x1f9",
        "chainId": "0x14a34"
      },
      "additionalContracts": [],
      "isFixedGasLimit": false
    },
    {
      "hash": "0x867d28b07d82e2eb0a32de47121c514db2d8395bcc5f450645372bb19d4640f0",
      "transactionType": "CALL",
      "contractName": null,
      "contractAddress": "0x385cc0441832620f1c157f9879ef421802b8f57f",
      "function": "setResourcePoint(uint256,uint256,uint256,uint256)",
      "arguments": [
        "900",
        "3",
        "1000",
        "9000"
      ],
      "transaction": {
        "from": "0xf471539c814e59323cce676435067470565e38fa",
        "to": "0x385cc0441832620f1c157f9879ef421802b8f57f",
        "gas": "0xd5c7",
        "value": "0x0",
        "input": "0x6b0cbef80000000000000000000000000000000000000000000000000000000000000384000000000000000000000000000000000000000000000000000000000000000300000000000000000000000000000000000000000000000000000000000003e80000000000000000000000000000000000000000000000000000000000002328",
        "nonce": "0x1fa",
        "chainId": "0x14a34"
      },
      "additionalContracts": [],
      "isFixedGasLimit": false
    },
    {
      "hash": "0xd1bf4cc102e66e43c494ff235cd5b25df83acb3432c7d3fa0a45ce04a66559c0",
      "transactionType": "CALL",
      "contractName": null,
      "contractAddress": "0x385cc0441832620f1c157f9879ef421802b8f57f",
      "function": "setSkillBlocks(uint256,uint256)",
      "arguments": [
        "100",
        "1"
      ],
      "transaction": {
        "from": "0xf471539c814e59323cce676435067470565e38fa",
        "to": "0x385cc0441832620f1c157f9879ef421802b8f57f",
        "gas": "0xb65b",
        "value": "0x0",
        "input": "0x2943757b00000000000000000000000000000000000000000000000000000000000000640000000000000000000000000000000000000000000000000000000000000001",
        "nonce": "0x1fb",
        "chainId": "0x14a34"
      },
      "additionalContracts": [],
      "isFixedGasLimit": false
    },
    {
      "hash": "0x81d916f51b82ac04b2793dd741f64fe65dde5f30e911debf9166403993b697da",
      "transactionType": "CALL",
      "contractName": null,
      "contractAddress": "0x385cc0441832620f1c157f9879ef421802b8f57f",
      "function": "setSkillBlocks(uint256,uint256)",
      "arguments": [
        "100",
        "2"
      ],
      "transaction": {
        "from": "0xf471539c814e59323cce676435067470565e38fa",
        "to": "0x385cc0441832620f1c157f9879ef421802b8f57f",
        "gas": "0xb65b",
        "value": "0x0",
        "input": "0x2943757b00000000000000000000000000000000000000000000000000000000000000640000000000000000000000000000000000000000000000000000000000000002",
        "nonce": "0x1fc",
        "chainId": "0x14a34"
      },
      "additionalContracts": [],
      "isFixedGasLimit": false
    },
    {
      "hash": "0x6d21760d651441298895355dc199a57b20ec270d041259407d36b1689a36d21a",
      "transactionType": "CALL",
      "contractName": null,
      "contractAddress": "0x385cc0441832620f1c157f9879ef421802b8f57f",
      "function": "setSkillBlocks(uint256,uint256)",
      "arguments": [
        "100",
        "3"
      ],
      "transaction": {
        "from": "0xf471539c814e59323cce676435067470565e38fa",
        "to": "0x385cc0441832620f1c157f9879ef421802b8f57f",
        "gas": "0xb65b",
        "value": "0x0",
        "input": "0x2943757b00000000000000000000000000000000000000000000000000000000000000640000000000000000000000000000000000000000000000000000000000000003",
        "nonce": "0x1fd",
        "chainId": "0x14a34"
      },
      "additionalContracts": [],
      "isFixedGasLimit": false
    },
    {
      "hash": "0xb871392c6da1395ef85419a392a59d94be8daf36a6352b2bc8c8e0ff6da57cca",
      "transactionType": "CALL",
      "contractName": null,
      "contractAddress": "0x385cc0441832620f1c157f9879ef421802b8f57f",
      "function": "setNPC(uint256,uint256,uint256,uint256)",
      "arguments": [
        "1",
        "1",
        "50",
        "50"
      ],
      "transaction": {
        "from": "0xf471539c814e59323cce676435067470565e38fa",
        "to": "0x385cc0441832620f1c157f9879ef421802b8f57f",
        "gas": "0xc001",
        "value": "0x0",
        "input": "0x0cab5b8d0000000000000000000000000000000000000000000000000000000000000001000000000000000000000000000000000000000000000000000000000000000100000000000000000000000000000000000000000000000000000000000000320000000000000000000000000000000000000000000000000000000000000032",
        "nonce": "0x1fe",
        "chainId": "0x14a34"
      },
      "additionalContracts": [],
      "isFixedGasLimit": false
    },
    {
      "hash": "0x3d69908218a29302f6115338a654d25b9fbaecf25289646fdd54feb45940806e",
      "transactionType": "CALL",
      "contractName": null,
      "contractAddress": "0x385cc0441832620f1c157f9879ef421802b8f57f",
      "function": "setNPC(uint256,uint256,uint256,uint256)",
      "arguments": [
        "2",
        "2",
        "60",
        "50"
      ],
      "transaction": {
        "from": "0xf471539c814e59323cce676435067470565e38fa",
        "to": "0x385cc0441832620f1c157f9879ef421802b8f57f",
        "gas": "0xc001",
        "value": "0x0",
        "input": "0x0cab5b8d00000000000000000000000000000000000000000000000000000000000000020000000000000000000000000000000000000000000000000000000000000002000000000000000000000000000000000000000000000000000000000000003c0000000000000000000000000000000000000000000000000000000000000032",
        "nonce": "0x1ff",
        "chainId": "0x14a34"
      },
      "additionalContracts": [],
      "isFixedGasLimit": false
    },
    {
      "hash": "0x59cafb49be515530f080701561189882b6ae1016afe092a08e62125d498bbe95",
      "transactionType": "CALL",
      "contractName": null,
      "contractAddress": "0x385cc0441832620f1c157f9879ef421802b8f57f",
      "function": "setNPC(uint256,uint256,uint256,uint256)",
      "arguments": [
        "3",
        "3",
        "70",
        "50"
      ],
      "transaction": {
        "from": "0xf471539c814e59323cce676435067470565e38fa",
        "to": "0x385cc0441832620f1c157f9879ef421802b8f57f",
        "gas": "0xc001",
        "value": "0x0",
        "input": "0x0cab5b8d0000000000000000000000000000000000000000000000000000000000000003000000000000000000000000000000000000000000000000000000000000000300000000000000000000000000000000000000000000000000000000000000460000000000000000000000000000000000000000000000000000000000000032",
        "nonce": "0x200",
        "chainId": "0x14a34"
      },
      "additionalContracts": [],
      "isFixedGasLimit": false
    },
    {
      "hash": "0x3fce25a6b2678a30dd2caa549225efb1f0e80bcdc2e4e10d6ab6cf2ae6ed8f11",
      "transactionType": "CALL",
      "contractName": null,
      "contractAddress": "0x385cc0441832620f1c157f9879ef421802b8f57f",
      "function": "setRecipe(uint256,uint256[],uint256[],uint256,uint256,uint256)",
      "arguments": [
        "1",
        "[1, 2]",
        "[10, 5]",
        "1",
        "300",
        "1001"
      ],
      "transaction": {
        "from": "0xf471539c814e59323cce676435067470565e38fa",
        "to": "0x385cc0441832620f1c157f9879ef421802b8f57f",
        "gas": "0x11376",
        "value": "0x0",
        "input": "0xf4d2121f000000000000000000000000000000000000000000000000000000000000000100000000000000000000000000000000000000000000000000000000000000c000000000000000000000000000000000000000000000000000000000000001200000000000000000000000000000000000000000000000000000000000000001000000000000000000000000000000000000000000000000000000000000012c00000000000000000000000000000000000000000000000000000000000003e90000000000000000000000000000000000000000000000000000000000000002000000000000000000000000000000000000000000000000000000000000000100000000000000000000000000000000000000000000000000000000000000020000000000000000000000000000000000000000000000000000000000000002000000000000000000000000000000000000000000000000000000000000000a0000000000000000000000000000000000000000000000000000000000000005",
        "nonce": "0x201",
        "chainId": "0x14a34"
      },
      "additionalContracts": [],
      "isFixedGasLimit": false
    },
    {
      "hash": "0x946d31b3e17cab9f5413fce1b3f3c4bcc9bd3cebf65e4a148ab20b07b5a452ac",
      "transactionType": "CALL",
      "contractName": null,
      "contractAddress": "0x385cc0441832620f1c157f9879ef421802b8f57f",
      "function": "setRecipe(uint256,uint256[],uint256[],uint256,uint256,uint256)",
      "arguments": [
        "2",
        "[2, 3]",
        "[12, 6]",
        "2",
        "500",
        "1002"
      ],
      "transaction": {
        "from": "0xf471539c814e59323cce676435067470565e38fa",
        "to": "0x385cc0441832620f1c157f9879ef421802b8f57f",
        "gas": "0x11376",
        "value": "0x0",
        "input": "0xf4d2121f000000000000000000000000000000000000000000000000000000000000000200000000000000000000000000000000000000000000000000000000000000c00000000000000000000000000000000000000000000000000000000000000120000000000000000000000000000000000000000000000000000000000000000200000000000000000000000000000000000000000000000000000000000001f400000000000000000000000000000000000000000000000000000000000003ea0000000000000000000000000000000000000000000000000000000000000002000000000000000000000000000000000000000000000000000000000000000200000000000000000000000000000000000000000000000000000000000000030000000000000000000000000000000000000000000000000000000000000002000000000000000000000000000000000000000000000000000000000000000c0000000000000000000000000000000000000000000000000000000000000006",
        "nonce": "0x202",
        "chainId": "0x14a34"
      },
      "additionalContracts": [],
      "isFixedGasLimit": false
    },
    {
      "hash": "0x95f19f7b80964568e15e3675662050e0b9f3f3d773257486c885e7b362a21332",
      "transactionType": "CALL",
      "contractName": null,
      "contractAddress": "0x385cc0441832620f1c157f9879ef421802b8f57f",
      "function": "setEquipmentConfig(uint256,uint256,int256,int256,int256,int256,int256)",
      "arguments": [
        "2",
        "0",
        "1001",
        "10",
        "0",
        "1",
        "1"
      ],
      "transaction": {
        "from": "0xf471539c814e59323cce676435067470565e38fa",
        "to": "0x385cc0441832620f1c157f9879ef421802b8f57f",
        "gas": "0xada0",
        "value": "0x0",
        "input": "0x7308956e0000000000000000000000000000000000000000000000000000000000000002000000000000000000000000000000000000000000000000000000000000000000000000000000000000000000000000000000000000000000000000000003e9000000000000000000000000000000000000000000000000000000000000000a000000000000000000000000000000000000000000000000000000000000000000000000000000000000000000000000000000000000000000000000000000010000000000000000000000000000000000000000000000000000000000000001",
        "nonce": "0x203",
        "chainId": "0x14a34"
      },
      "additionalContracts": [],
      "isFixedGasLimit": false
    },
    {
      "hash": "0xd07df9514b01b7b72952b46566c1746957c564314a469b2dd63a53cd103161b1",
      "transactionType": "CALL",
      "contractName": null,
      "contractAddress": "0x385cc0441832620f1c157f9879ef421802b8f57f",
      "function": "setEquipmentConfig(uint256,uint256,int256,int256,int256,int256,int256)",
      "arguments": [
        "3",
        "1",
        "1002",
        "20",
        "1",
        "2",
        "0"
      ],
      "transaction": {
        "from": "0xf471539c814e59323cce676435067470565e38fa",
        "to": "0x385cc0441832620f1c157f9879ef421802b8f57f",
        "gas": "0xadb1",
        "value": "0x0",
        "input": "0x7308956e0000000000000000000000000000000000000000000000000000000000000003000000000000000000000000000000000000000000000000000000000000000100000000000000000000000000000000000000000000000000000000000003ea0000000000000000000000000000000000000000000000000000000000000014000000000000000000000000000000000000000000000000000000000000000100000000000000000000000000000000000000000000000000000000000000020000000000000000000000000000000000000000000000000000000000000000",
        "nonce": "0x204",
        "chainId": "0x14a34"
      },
      "additionalContracts": [],
      "isFixedGasLimit": false
    }
  ],
  "receipts": [
    {
      "status": "0x1",
      "cumulativeGasUsed": "0x255a11",
      "logs": [],
      "logsBloom": "0x00000000000000000000000000000000000000000000000000000000000000000000000000000000000000000000000000000000000000000000000000000000000000000000000000000000000000000000000000000000000000000000000000000000000000000000000000000000000000000000000000000000000000000000000000000000000000000000000000000000000000000000000000000000000000000000000000000000000000000000000000000000000000000000000000000000000000000000000000000000000000000000000000000000000000000000000000000000000000000000000000000000000000000000000000000000",
      "type": "0x2",
      "transactionHash": "0xadb637f3d7d9e6f395c0f0891950038209de1ca2f2a520a3fc79c6a231e895fb",
      "transactionIndex": "0x10",
      "blockHash": "0x0000000000000000000000000000000000000000000000000000000000000000",
      "blockNumber": "0x24a518e",
      "gasUsed": "0x83fa",
      "effectiveGasPrice": "0x5b8d80",
      "blobGasUsed": "0x364c",
      "from": "0xf471539c814e59323cce676435067470565e38fa",
      "to": "0x6638e9cf20d5799f645d8fd0a3f7d5f07b4a02c7",
      "contractAddress": null,
      "daFootprintGasScalar": "0x8b",
      "l1BaseFeeScalar": "0x44d",
      "l1BlobBaseFee": "0x1",
      "l1BlobBaseFeeScalar": "0xa118b",
      "l1Fee": "0x58",
      "l1GasPrice": "0xd",
      "l1GasUsed": "0x640"
    },
    {
      "status": "0x1",
      "cumulativeGasUsed": "0x25ca70",
      "logs": [],
      "logsBloom": "0x00000000000000000000000000000000000000000000000000000000000000000000000000000000000000000000000000000000000000000000000000000000000000000000000000000000000000000000000000000000000000000000000000000000000000000000000000000000000000000000000000000000000000000000000000000000000000000000000000000000000000000000000000000000000000000000000000000000000000000000000000000000000000000000000000000000000000000000000000000000000000000000000000000000000000000000000000000000000000000000000000000000000000000000000000000000",
      "type": "0x2",
      "transactionHash": "0xa8f8f004505cc2cbbbe71f345bd61a5a2bb7ac1d4c0ff9cbb7f20f01c5256e6e",
      "transactionIndex": "0x11",
      "blockHash": "0x0000000000000000000000000000000000000000000000000000000000000000",
      "blockNumber": "0x24a518e",
      "gasUsed": "0x705f",
      "effectiveGasPrice": "0x5b8d80",
      "blobGasUsed": "0x364c",
      "from": "0xf471539c814e59323cce676435067470565e38fa",
      "to": "0x6638e9cf20d5799f645d8fd0a3f7d5f07b4a02c7",
      "contractAddress": null,
      "daFootprintGasScalar": "0x8b",
      "l1BaseFeeScalar": "0x44d",
      "l1BlobBaseFee": "0x1",
      "l1BlobBaseFeeScalar": "0xa118b",
      "l1Fee": "0x58",
      "l1GasPrice": "0xd",
      "l1GasUsed": "0x640"
    },
    {
      "status": "0x1",
      "cumulativeGasUsed": "0x263b30",
      "logs": [],
      "logsBloom": "0x00000000000000000000000000000000000000000000000000000000000000000000000000000000000000000000000000000000000000000000000000000000000000000000000000000000000000000000000000000000000000000000000000000000000000000000000000000000000000000000000000000000000000000000000000000000000000000000000000000000000000000000000000000000000000000000000000000000000000000000000000000000000000000000000000000000000000000000000000000000000000000000000000000000000000000000000000000000000000000000000000000000000000000000000000000000",
      "type": "0x2",
      "transactionHash": "0xe6c4b1128a1566a11e6fc8472be06817d27f2e039d987b56645527a074c8cec3",
      "transactionIndex": "0x12",
      "blockHash": "0x0000000000000000000000000000000000000000000000000000000000000000",
      "blockNumber": "0x24a518e",
      "gasUsed": "0x70c0",
      "effectiveGasPrice": "0x5b8d80",
      "blobGasUsed": "0x364c",
      "from": "0xf471539c814e59323cce676435067470565e38fa",
      "to": "0x6638e9cf20d5799f645d8fd0a3f7d5f07b4a02c7",
      "contractAddress": null,
      "daFootprintGasScalar": "0x8b",
      "l1BaseFeeScalar": "0x44d",
      "l1BlobBaseFee": "0x1",
      "l1BlobBaseFeeScalar": "0xa118b",
      "l1Fee": "0x58",
      "l1GasPrice": "0xd",
      "l1GasUsed": "0x640"
    },
    {
      "status": "0x1",
      "cumulativeGasUsed": "0x26aad5",
      "logs": [],
      "logsBloom": "0x00000000000000000000000000000000000000000000000000000000000000000000000000000000000000000000000000000000000000000000000000000000000000000000000000000000000000000000000000000000000000000000000000000000000000000000000000000000000000000000000000000000000000000000000000000000000000000000000000000000000000000000000000000000000000000000000000000000000000000000000000000000000000000000000000000000000000000000000000000000000000000000000000000000000000000000000000000000000000000000000000000000000000000000000000000000",
      "type": "0x2",
      "transactionHash": "0x4292c19a6be85a517523e24e964210ee7be8330624debae090a4b7b4ba53813c",
      "transactionIndex": "0x13",
      "blockHash": "0x0000000000000000000000000000000000000000000000000000000000000000",
      "blockNumber": "0x24a518e",
      "gasUsed": "0x6fa5",
      "effectiveGasPrice": "0x5b8d80",
      "blobGasUsed": "0x364c",
      "from": "0xf471539c814e59323cce676435067470565e38fa",
      "to": "0x6638e9cf20d5799f645d8fd0a3f7d5f07b4a02c7",
      "contractAddress": null,
      "daFootprintGasScalar": "0x8b",
      "l1BaseFeeScalar": "0x44d",
      "l1BlobBaseFee": "0x1",
      "l1BlobBaseFeeScalar": "0xa118b",
      "l1Fee": "0x58",
      "l1GasPrice": "0xd",
      "l1GasUsed": "0x640"
    },
    {
      "status": "0x1",
      "cumulativeGasUsed": "0x271a64",
      "logs": [],
      "logsBloom": "0x00000000000000000000000000000000000000000000000000000000000000000000000000000000000000000000000000000000000000000000000000000000000000000000000000000000000000000000000000000000000000000000000000000000000000000000000000000000000000000000000000000000000000000000000000000000000000000000000000000000000000000000000000000000000000000000000000000000000000000000000000000000000000000000000000000000000000000000000000000000000000000000000000000000000000000000000000000000000000000000000000000000000000000000000000000000",
      "type": "0x2",
      "transactionHash": "0x9e30241389817513818fa7336b7f627617d03734234fb424cb1b46c0b0761ea6",
      "transactionIndex": "0x14",
      "blockHash": "0x0000000000000000000000000000000000000000000000000000000000000000",
      "blockNumber": "0x24a518e",
      "gasUsed": "0x6f8f",
      "effectiveGasPrice": "0x5b8d80",
      "blobGasUsed": "0x364c",
      "from": "0xf471539c814e59323cce676435067470565e38fa",
      "to": "0x6638e9cf20d5799f645d8fd0a3f7d5f07b4a02c7",
      "contractAddress": null,
      "daFootprintGasScalar": "0x8b",
      "l1BaseFeeScalar": "0x44d",
      "l1BlobBaseFee": "0x1",
      "l1BlobBaseFeeScalar": "0xa118b",
      "l1Fee": "0x58",
      "l1GasPrice": "0xd",
      "l1GasUsed": "0x640"
    },
    {
      "status": "0x1",
      "cumulativeGasUsed": "0x278a61",
      "logs": [],
      "logsBloom": "0x00000000000000000000000000000000000000000000000000000000000000000000000000000000000000000000000000000000000000000000000000000000000000000000000000000000000000000000000000000000000000000000000000000000000000000000000000000000000000000000000000000000000000000000000000000000000000000000000000000000000000000000000000000000000000000000000000000000000000000000000000000000000000000000000000000000000000000000000000000000000000000000000000000000000000000000000000000000000000000000000000000000000000000000000000000000",
      "type": "0x2",
      "transactionHash": "0xcfb4dc6bf27e1a8f37bf9fa7793549bbf65cae1a1306dcaa3a3ad5b70335ef8e",
      "transactionIndex": "0x15",
      "blockHash": "0x0000000000000000000000000000000000000000000000000000000000000000",
      "blockNumber": "0x24a518e",
      "gasUsed": "0x6ffd",
      "effectiveGasPrice": "0x5b8d80",
      "blobGasUsed": "0x364c",
      "from": "0xf471539c814e59323cce676435067470565e38fa",
      "to": "0x6638e9cf20d5799f645d8fd0a3f7d5f07b4a02c7",
      "contractAddress": null,
      "daFootprintGasScalar": "0x8b",
      "l1BaseFeeScalar": "0x44d",
      "l1BlobBaseFee": "0x1",
      "l1BlobBaseFeeScalar": "0xa118b",
      "l1Fee": "0x58",
      "l1GasPrice": "0xd",
      "l1GasUsed": "0x640"
    },
    {
      "status": "0x1",
      "cumulativeGasUsed": "0x27fa00",
      "logs": [],
      "logsBloom": "0x00000000000000000000000000000000000000000000000000000000000000000000000000000000000000000000000000000000000000000000000000000000000000000000000000000000000000000000000000000000000000000000000000000000000000000000000000000000000000000000000000000000000000000000000000000000000000000000000000000000000000000000000000000000000000000000000000000000000000000000000000000000000000000000000000000000000000000000000000000000000000000000000000000000000000000000000000000000000000000000000000000000000000000000000000000000",
      "type": "0x2",
      "transactionHash": "0x11689f8d704c56876eba36fd419fd10800978dd38f1aefa8d241517cc05931c6",
      "transactionIndex": "0x16",
      "blockHash": "0x0000000000000000000000000000000000000000000000000000000000000000",
      "blockNumber": "0x24a518e",
      "gasUsed": "0x6f9f",
      "effectiveGasPrice": "0x5b8d80",
      "blobGasUsed": "0x364c",
      "from": "0xf471539c814e59323cce676435067470565e38fa",
      "to": "0x6638e9cf20d5799f645d8fd0a3f7d5f07b4a02c7",
      "contractAddress": null,
      "daFootprintGasScalar": "0x8b",
      "l1BaseFeeScalar": "0x44d",
      "l1BlobBaseFee": "0x1",
      "l1BlobBaseFeeScalar": "0xa118b",
      "l1Fee": "0x58",
      "l1GasPrice": "0xd",
      "l1GasUsed": "0x640"
    },
    {
      "status": "0x1",
      "cumulativeGasUsed": "0x2d0153",
      "logs": [],
      "logsBloom": "0x00000000000000000000000000000000000000000000000000000000000000000000000000000000000000000000000000000000000000000000000000000000000000000000000000000000000000000000000000000000000000000000000000000000000000000000000000000000000000000000000000000000000000000000000000000000000000000000000000000000000000000000000000000000000000000000000000000000000000000000000000000000000000000000000000000000000000000000000000000000000000000000000000000000000000000000000000000000000000000000000000000000000000000000000000000000",
      "type": "0x2",
      "transactionHash": "0x76ac5bc81879b3e122f0563d37660b76bfec0e5d44f38911bd45065f6483bd6b",
      "transactionIndex": "0x1b",
      "blockHash": "0x0000000000000000000000000000000000000000000000000000000000000000",
      "blockNumber": "0x24a518e",
      "gasUsed": "0x9ac6",
      "effectiveGasPrice": "0x5b8d80",
      "blobGasUsed": "0x364c",
      "from": "0xf471539c814e59323cce676435067470565e38fa",
      "to": "0x385cc0441832620f1c157f9879ef421802b8f57f",
      "contractAddress": null,
      "daFootprintGasScalar": "0x8b",
      "l1BaseFeeScalar": "0x44d",
      "l1BlobBaseFee": "0x1",
      "l1BlobBaseFeeScalar": "0xa118b",
      "l1Fee": "0x58",
      "l1GasPrice": "0xd",
      "l1GasUsed": "0x640"
    },
    {
      "status": "0x1",
      "cumulativeGasUsed": "0x2d9c19",
      "logs": [],
      "logsBloom": "0x00000000000000000000000000000000000000000000000000000000000000000000000000000000000000000000000000000000000000000000000000000000000000000000000000000000000000000000000000000000000000000000000000000000000000000000000000000000000000000000000000000000000000000000000000000000000000000000000000000000000000000000000000000000000000000000000000000000000000000000000000000000000000000000000000000000000000000000000000000000000000000000000000000000000000000000000000000000000000000000000000000000000000000000000000000000",
      "type": "0x2",
      "transactionHash": "0xefea630ecc65871109f71e1275423c622b69249dfcf8f3554cbdd9895757119b",
      "transactionIndex": "0x1c",
      "blockHash": "0x0000000000000000000000000000000000000000000000000000000000000000",
      "blockNumber": "0x24a518e",
      "gasUsed": "0x9ac6",
      "effectiveGasPrice": "0x5b8d80",
      "blobGasUsed": "0x364c",
      "from": "0xf471539c814e59323cce676435067470565e38fa",
      "to": "0x385cc0441832620f1c157f9879ef421802b8f57f",
      "contractAddress": null,
      "daFootprintGasScalar": "0x8b",
      "l1BaseFeeScalar": "0x44d",
      "l1BlobBaseFee": "0x1",
      "l1BlobBaseFeeScalar": "0xa118b",
      "l1Fee": "0x58",
      "l1GasPrice": "0xd",
      "l1GasUsed": "0x640"
    },
    {
      "status": "0x1",
      "cumulativeGasUsed": "0x2e36df",
      "logs": [],
      "logsBloom": "0x00000000000000000000000000000000000000000000000000000000000000000000000000000000000000000000000000000000000000000000000000000000000000000000000000000000000000000000000000000000000000000000000000000000000000000000000000000000000000000000000000000000000000000000000000000000000000000000000000000000000000000000000000000000000000000000000000000000000000000000000000000000000000000000000000000000000000000000000000000000000000000000000000000000000000000000000000000000000000000000000000000000000000000000000000000000",
      "type": "0x2",
      "transactionHash": "0x867d28b07d82e2eb0a32de47121c514db2d8395bcc5f450645372bb19d4640f0",
      "transactionIndex": "0x1d",
      "blockHash": "0x0000000000000000000000000000000000000000000000000000000000000000",
      "blockNumber": "0x24a518e",
      "gasUsed": "0x9ac6",
      "effectiveGasPrice": "0x5b8d80",
      "blobGasUsed": "0x364c",
      "from": "0xf471539c814e59323cce676435067470565e38fa",
      "to": "0x385cc0441832620f1c157f9879ef421802b8f57f",
      "contractAddress": null,
      "daFootprintGasScalar": "0x8b",
      "l1BaseFeeScalar": "0x44d",
      "l1BlobBaseFee": "0x1",
      "l1BlobBaseFeeScalar": "0xa118b",
      "l1Fee": "0x58",
      "l1GasPrice": "0xd",
      "l1GasUsed": "0x640"
    },
    {
      "status": "0x1",
      "cumulativeGasUsed": "0x2ebae5",
      "logs": [],
      "logsBloom": "0x00000000000000000000000000000000000000000000000000000000000000000000000000000000000000000000000000000000000000000000000000000000000000000000000000000000000000000000000000000000000000000000000000000000000000000000000000000000000000000000000000000000000000000000000000000000000000000000000000000000000000000000000000000000000000000000000000000000000000000000000000000000000000000000000000000000000000000000000000000000000000000000000000000000000000000000000000000000000000000000000000000000000000000000000000000000",
      "type": "0x2",
      "transactionHash": "0xd1bf4cc102e66e43c494ff235cd5b25df83acb3432c7d3fa0a45ce04a66559c0",
      "transactionIndex": "0x1e",
      "blockHash": "0xc1f3c0e1bcc800c04891641de2274a9e5974408394802de3ce6ef321895323ed",
      "blockNumber": "0x24a518e",
      "gasUsed": "0x8406",
      "effectiveGasPrice": "0x5b8d80",
      "blobGasUsed": "0x364c",
      "from": "0xf471539c814e59323cce676435067470565e38fa",
      "to": "0x385cc0441832620f1c157f9879ef421802b8f57f",
      "contractAddress": null,
      "daFootprintGasScalar": "0x8b",
      "l1BaseFeeScalar": "0x44d",
      "l1BlobBaseFee": "0x1",
      "l1BlobBaseFeeScalar": "0xa118b",
      "l1Fee": "0x58",
      "l1GasPrice": "0xd",
      "l1GasUsed": "0x640"
    },
    {
      "status": "0x1",
      "cumulativeGasUsed": "0x2f3eeb",
      "logs": [],
      "logsBloom": "0x00000000000000000000000000000000000000000000000000000000000000000000000000000000000000000000000000000000000000000000000000000000000000000000000000000000000000000000000000000000000000000000000000000000000000000000000000000000000000000000000000000000000000000000000000000000000000000000000000000000000000000000000000000000000000000000000000000000000000000000000000000000000000000000000000000000000000000000000000000000000000000000000000000000000000000000000000000000000000000000000000000000000000000000000000000000",
      "type": "0x2",
      "transactionHash": "0x81d916f51b82ac04b2793dd741f64fe65dde5f30e911debf9166403993b697da",
      "transactionIndex": "0x1f",
      "blockHash": "0xc1f3c0e1bcc800c04891641de2274a9e5974408394802de3ce6ef321895323ed",
      "blockNumber": "0x24a518e",
      "gasUsed": "0x8406",
      "effectiveGasPrice": "0x5b8d80",
      "blobGasUsed": "0x364c",
      "from": "0xf471539c814e59323cce676435067470565e38fa",
      "to": "0x385cc0441832620f1c157f9879ef421802b8f57f",
      "contractAddress": null,
      "daFootprintGasScalar": "0x8b",
      "l1BaseFeeScalar": "0x44d",
      "l1BlobBaseFee": "0x1",
      "l1BlobBaseFeeScalar": "0xa118b",
      "l1Fee": "0x58",
      "l1GasPrice": "0xd",
      "l1GasUsed": "0x640"
    },
    {
      "status": "0x1",
      "cumulativeGasUsed": "0x2fc2f1",
      "logs": [],
      "logsBloom": "0x00000000000000000000000000000000000000000000000000000000000000000000000000000000000000000000000000000000000000000000000000000000000000000000000000000000000000000000000000000000000000000000000000000000000000000000000000000000000000000000000000000000000000000000000000000000000000000000000000000000000000000000000000000000000000000000000000000000000000000000000000000000000000000000000000000000000000000000000000000000000000000000000000000000000000000000000000000000000000000000000000000000000000000000000000000000",
      "type": "0x2",
      "transactionHash": "0x6d21760d651441298895355dc199a57b20ec270d041259407d36b1689a36d21a",
      "transactionIndex": "0x20",
      "blockHash": "0xc1f3c0e1bcc800c04891641de2274a9e5974408394802de3ce6ef321895323ed",
      "blockNumber": "0x24a518e",
      "gasUsed": "0x8406",
      "effectiveGasPrice": "0x5b8d80",
      "blobGasUsed": "0x364c",
      "from": "0xf471539c814e59323cce676435067470565e38fa",
      "to": "0x385cc0441832620f1c157f9879ef421802b8f57f",
      "contractAddress": null,
      "daFootprintGasScalar": "0x8b",
      "l1BaseFeeScalar": "0x44d",
      "l1BlobBaseFee": "0x1",
      "l1BlobBaseFeeScalar": "0xa118b",
      "l1Fee": "0x58",
      "l1GasPrice": "0xd",
      "l1GasUsed": "0x640"
    },
    {
      "status": "0x1",
      "cumulativeGasUsed": "0x30463a",
      "logs": [],
      "logsBloom": "0x00000000000000000000000000000000000000000000000000000000000000000000000000000000000000000000000000000000000000000000000000000000000000000000000000000000000000000000000000000000000000000000000000000000000000000000000000000000000000000000000000000000000000000000000000000000000000000000000000000000000000000000000000000000000000000000000000000000000000000000000000000000000000000000000000000000000000000000000000000000000000000000000000000000000000000000000000000000000000000000000000000000000000000000000000000000",
      "type": "0x2",
      "transactionHash": "0xb871392c6da1395ef85419a392a59d94be8daf36a6352b2bc8c8e0ff6da57cca",
      "transactionIndex": "0x21",
      "blockHash": "0xc1f3c0e1bcc800c04891641de2274a9e5974408394802de3ce6ef321895323ed",
      "blockNumber": "0x24a518e",
      "gasUsed": "0x8349",
      "effectiveGasPrice": "0x5b8d80",
      "blobGasUsed": "0x364c",
      "from": "0xf471539c814e59323cce676435067470565e38fa",
      "to": "0x385cc0441832620f1c157f9879ef421802b8f57f",
      "contractAddress": null,
      "daFootprintGasScalar": "0x8b",
      "l1BaseFeeScalar": "0x44d",
      "l1BlobBaseFee": "0x1",
      "l1BlobBaseFeeScalar": "0xa118b",
      "l1Fee": "0x58",
      "l1GasPrice": "0xd",
      "l1GasUsed": "0x640"
    },
    {
      "status": "0x1",
      "cumulativeGasUsed": "0x35032c",
      "logs": [],
      "logsBloom": "0x00000000000000000000000000000000000000000000000000000000000000000000000000000000000000000000000000000000000000000000000000000000000000000000000000000000000000000000000000000000000000000000000000000000000000000000000000000000000000000000000000000000000000000000000000000000000000000000000000000000000000000000000000000000000000000000000000000000000000000000000000000000000000000000000000000000000000000000000000000000000000000000000000000000000000000000000000000000000000000000000000000000000000000000000000000000",
      "type": "0x2",
      "transactionHash": "0x3d69908218a29302f6115338a654d25b9fbaecf25289646fdd54feb45940806e",
      "transactionIndex": "0x26",
      "blockHash": "0xc1f3c0e1bcc800c04891641de2274a9e5974408394802de3ce6ef321895323ed",
      "blockNumber": "0x24a518e",
      "gasUsed": "0x8349",
      "effectiveGasPrice": "0x5b8d80",
      "blobGasUsed": "0x364c",
      "from": "0xf471539c814e59323cce676435067470565e38fa",
      "to": "0x385cc0441832620f1c157f9879ef421802b8f57f",
      "contractAddress": null,
      "daFootprintGasScalar": "0x8b",
      "l1BaseFeeScalar": "0x44d",
      "l1BlobBaseFee": "0x1",
      "l1BlobBaseFeeScalar": "0xa118b",
      "l1Fee": "0x58",
      "l1GasPrice": "0xd",
      "l1GasUsed": "0x640"
    },
    {
      "status": "0x1",
      "cumulativeGasUsed": "0x367ada",
      "logs": [],
      "logsBloom": "0x00000000000000000000000000000000000000000000000000000000000000000000000000000000000000000000000000000000000000000000000000000000000000000000000000000000000000000000000000000000000000000000000000000000000000000000000000000000000000000000000000000000000000000000000000000000000000000000000000000000000000000000000000000000000000000000000000000000000000000000000000000000000000000000000000000000000000000000000000000000000000000000000000000000000000000000000000000000000000000000000000000000000000000000000000000000",
      "type": "0x2",
      "transactionHash": "0x59cafb49be515530f080701561189882b6ae1016afe092a08e62125d498bbe95",
      "transactionIndex": "0x29",
      "blockHash": "0xc1f3c0e1bcc800c04891641de2274a9e5974408394802de3ce6ef321895323ed",
      "blockNumber": "0x24a518e",
      "gasUsed": "0x8349",
      "effectiveGasPrice": "0x5b8d80",
      "blobGasUsed": "0x364c",
      "from": "0xf471539c814e59323cce676435067470565e38fa",
      "to": "0x385cc0441832620f1c157f9879ef421802b8f57f",
      "contractAddress": null,
      "daFootprintGasScalar": "0x8b",
      "l1BaseFeeScalar": "0x44d",
      "l1BlobBaseFee": "0x1",
      "l1BlobBaseFeeScalar": "0xa118b",
      "l1Fee": "0x58",
      "l1GasPrice": "0xd",
      "l1GasUsed": "0x640"
    },
    {
      "status": "0x1",
      "cumulativeGasUsed": "0x373734",
      "logs": [],
      "logsBloom": "0x00000000000000000000000000000000000000000000000000000000000000000000000000000000000000000000000000000000000000000000000000000000000000000000000000000000000000000000000000000000000000000000000000000000000000000000000000000000000000000000000000000000000000000000000000000000000000000000000000000000000000000000000000000000000000000000000000000000000000000000000000000000000000000000000000000000000000000000000000000000000000000000000000000000000000000000000000000000000000000000000000000000000000000000000000000000",
      "type": "0x2",
      "transactionHash": "0x3fce25a6b2678a30dd2caa549225efb1f0e80bcdc2e4e10d6ab6cf2ae6ed8f11",
      "transactionIndex": "0x2a",
      "blockHash": "0xc1f3c0e1bcc800c04891641de2274a9e5974408394802de3ce6ef321895323ed",
      "blockNumber": "0x24a518e",
      "gasUsed": "0xbc5a",
      "effectiveGasPrice": "0x5b8d80",
      "blobGasUsed": "0x4012",
      "from": "0xf471539c814e59323cce676435067470565e38fa",
      "to": "0x385cc0441832620f1c157f9879ef421802b8f57f",
      "contractAddress": null,
      "daFootprintGasScalar": "0x8b",
      "l1BaseFeeScalar": "0x44d",
      "l1BlobBaseFee": "0x1",
      "l1BlobBaseFeeScalar": "0xa118b",
      "l1Fee": "0x69",
      "l1GasPrice": "0xd",
      "l1GasUsed": "0x76d"
    },
    {
      "status": "0x1",
      "cumulativeGasUsed": "0x37f38e",
      "logs": [],
      "logsBloom": "0x00000000000000000000000000000000000000000000000000000000000000000000000000000000000000000000000000000000000000000000000000000000000000000000000000000000000000000000000000000000000000000000000000000000000000000000000000000000000000000000000000000000000000000000000000000000000000000000000000000000000000000000000000000000000000000000000000000000000000000000000000000000000000000000000000000000000000000000000000000000000000000000000000000000000000000000000000000000000000000000000000000000000000000000000000000000",
      "type": "0x2",
      "transactionHash": "0x946d31b3e17cab9f5413fce1b3f3c4bcc9bd3cebf65e4a148ab20b07b5a452ac",
      "transactionIndex": "0x2b",
      "blockHash": "0xc1f3c0e1bcc800c04891641de2274a9e5974408394802de3ce6ef321895323ed",
      "blockNumber": "0x24a518e",
      "gasUsed": "0xbc5a",
      "effectiveGasPrice": "0x5b8d80",
      "blobGasUsed": "0x4012",
      "from": "0xf471539c814e59323cce676435067470565e38fa",
      "to": "0x385cc0441832620f1c157f9879ef421802b8f57f",
      "contractAddress": null,
      "daFootprintGasScalar": "0x8b",
      "l1BaseFeeScalar": "0x44d",
      "l1BlobBaseFee": "0x1",
      "l1BlobBaseFeeScalar": "0xa118b",
      "l1Fee": "0x69",
      "l1GasPrice": "0xd",
      "l1GasUsed": "0x76d"
    },
    {
      "status": "0x1",
      "cumulativeGasUsed": "0x387142",
      "logs": [],
      "logsBloom": "0x00000000000000000000000000000000000000000000000000000000000000000000000000000000000000000000000000000000000000000000000000000000000000000000000000000000000000000000000000000000000000000000000000000000000000000000000000000000000000000000000000000000000000000000000000000000000000000000000000000000000000000000000000000000000000000000000000000000000000000000000000000000000000000000000000000000000000000000000000000000000000000000000000000000000000000000000000000000000000000000000000000000000000000000000000000000",
      "type": "0x2",
      "transactionHash": "0x95f19f7b80964568e15e3675662050e0b9f3f3d773257486c885e7b362a21332",
      "transactionIndex": "0x2c",
      "blockHash": "0xc1f3c0e1bcc800c04891641de2274a9e5974408394802de3ce6ef321895323ed",
      "blockNumber": "0x24a518e",
      "gasUsed": "0x7db4",
      "effectiveGasPrice": "0x5b8d80",
      "blobGasUsed": "0x364c",
      "from": "0xf471539c814e59323cce676435067470565e38fa",
      "to": "0x385cc0441832620f1c157f9879ef421802b8f57f",
      "contractAddress": null,
      "daFootprintGasScalar": "0x8b",
      "l1BaseFeeScalar": "0x44d",
      "l1BlobBaseFee": "0x1",
      "l1BlobBaseFeeScalar": "0xa118b",
      "l1Fee": "0x58",
      "l1GasPrice": "0xd",
      "l1GasUsed": "0x640"
    },
    {
      "status": "0x1",
      "cumulativeGasUsed": "0x38ef02",
      "logs": [],
      "logsBloom": "0x00000000000000000000000000000000000000000000000000000000000000000000000000000000000000000000000000000000000000000000000000000000000000000000000000000000000000000000000000000000000000000000000000000000000000000000000000000000000000000000000000000000000000000000000000000000000000000000000000000000000000000000000000000000000000000000000000000000000000000000000000000000000000000000000000000000000000000000000000000000000000000000000000000000000000000000000000000000000000000000000000000000000000000000000000000000",
      "type": "0x2",
      "transactionHash": "0xd07df9514b01b7b72952b46566c1746957c564314a469b2dd63a53cd103161b1",
      "transactionIndex": "0x2d",
      "blockHash": "0xc1f3c0e1bcc800c04891641de2274a9e5974408394802de3ce6ef321895323ed",
      "blockNumber": "0x24a518e",
      "gasUsed": "0x7dc0",
      "effectiveGasPrice": "0x5b8d80",
      "blobGasUsed": "0x364c",
      "from": "0xf471539c814e59323cce676435067470565e38fa",
      "to": "0x385cc0441832620f1c157f9879ef421802b8f57f",
      "contractAddress": null,
      "daFootprintGasScalar": "0x8b",
      "l1BaseFeeScalar": "0x44d",
      "l1BlobBaseFee": "0x1",
      "l1BlobBaseFeeScalar": "0xa118b",
      "l1Fee": "0x58",
      "l1GasPrice": "0xd",
      "l1GasUsed": "0x640"
    }
  ],
  "libraries": [],
  "pending": [],
  "returns": {},
  "timestamp": 1772618236,
  "chain": 84532,
  "commit": "cd06ebe"
}