{
  "transactions": [
    {
      "hash": "0xc4edcadd8d1db9e5c8311be3b47f0603168c95ab1ce4a0bce958ffcc175247bc",
      "transactionType": "CALL",
      "contractName": null,
      "contractAddress": "0x83db36dbb464ab3741f3b48d3cdfdba3a5e9daf7",
      "function": "setMapDimensions(uint256,uint256)",
      "arguments": [
        "10000",
        "10000"
      ],
      "transaction": {
        "from": "0xf471539c814e59323cce676435067470565e38fa",
        "to": "0x83db36dbb464ab3741f3b48d3cdfdba3a5e9daf7",
        "gas": "0xed41",
        "value": "0x0",
        "input": "0x5b2f9cc300000000000000000000000000000000000000000000000000000000000027100000000000000000000000000000000000000000000000000000000000002710",
        "nonce": "0x24c",
        "chainId": "0x14a34"
      },
      "additionalContracts": [],
      "isFixedGasLimit": false
    },
    {
      "hash": "0xe11c52147b932acb86b5fd28f4e115e843ad4bfa43707291bb531a5153dd37c8",
      "transactionType": "CALL",
      "contractName": null,
      "contractAddress": "0x83db36dbb464ab3741f3b48d3cdfdba3a5e9daf7",
      "function": "setMintIntervalBlocks(uint256)",
      "arguments": [
        "100"
      ],
      "transaction": {
        "from": "0xf471539c814e59323cce676435067470565e38fa",
        "to": "0x83db36dbb464ab3741f3b48d3cdfdba3a5e9daf7",
        "gas": "0xf9f5",
        "value": "0x0",
        "input": "0xa516dda50000000000000000000000000000000000000000000000000000000000000064",
        "nonce": "0x24d",
        "chainId": "0x14a34"
      },
      "additionalContracts": [],
      "isFixedGasLimit": false
    },
    {
      "hash": "0xe19aba74da7441c6921f10108dba7cb39825a8a253cc4cb744af5e2cb03a9077",
      "transactionType": "CALL",
      "contractName": null,
      "contractAddress": "0x83db36dbb464ab3741f3b48d3cdfdba3a5e9daf7",
      "function": "setMintAmount(uint256)",
      "arguments": [
        "50000000000000000000"
      ],
      "transaction": {
        "from": "0xf471539c814e59323cce676435067470565e38fa",
        "to": "0x83db36dbb464ab3741f3b48d3cdfdba3a5e9daf7",
        "gas": "0xfa83",
        "value": "0x0",
        "input": "0xc7cd997f000000000000000000000000000000000000000000000002b5e3af16b1880000",
        "nonce": "0x24e",
        "chainId": "0x14a34"
      },
      "additionalContracts": [],
      "isFixedGasLimit": false
    },
    {
      "hash": "0x49ef2973db0f79edf7c0d322791b384a923a1cecc4664d11a5faef1441ad73c2",
      "transactionType": "CALL",
      "contractName": null,
      "contractAddress": "0x83db36dbb464ab3741f3b48d3cdfdba3a5e9daf7",
      "function": "setStabilizationBlocks(uint256)",
      "arguments": [
        "4000"
      ],
      "transaction": {
        "from": "0xf471539c814e59323cce676435067470565e38fa",
        "to": "0x83db36dbb464ab3741f3b48d3cdfdba3a5e9daf7",
        "gas": "0xeb12",
        "value": "0x0",
        "input": "0x51aaa4770000000000000000000000000000000000000000000000000000000000000fa0",
        "nonce": "0x24f",
        "chainId": "0x14a34"
      },
      "additionalContracts": [],
      "isFixedGasLimit": false
    },
    {
      "hash": "0xc88cc859e339be3184101aa35ab9540a1874dd9a380936bd2a8c54dd89ad3a3e",
      "transactionType": "CALL",
      "contractName": null,
      "contractAddress": "0x83db36dbb464ab3741f3b48d3cdfdba3a5e9daf7",
      "function": "setCraftDurationBlocks(uint256)",
      "arguments": [
        "3600"
      ],
      "transaction": {
        "from": "0xf471539c814e59323cce676435067470565e38fa",
        "to": "0x83db36dbb464ab3741f3b48d3cdfdba3a5e9daf7",
        "gas": "0xf8c5",
        "value": "0x0",
        "input": "0x3a266efb0000000000000000000000000000000000000000000000000000000000000e10",
        "nonce": "0x250",
        "chainId": "0x14a34"
      },
      "additionalContracts": [],
      "isFixedGasLimit": false
    },
    {
      "hash": "0xe32e81ecc93544f0a0d5af1ce80b0aea9b5bec2557feb26c788712e55efd80be",
      "transactionType": "CALL",
      "contractName": null,
      "contractAddress": "0x83db36dbb464ab3741f3b48d3cdfdba3a5e9daf7",
      "function": "setHalvingIntervalBlocks(uint256)",
      "arguments": [
        "6048000"
      ],
      "transaction": {
        "from": "0xf471539c814e59323cce676435067470565e38fa",
        "to": "0x83db36dbb464ab3741f3b48d3cdfdba3a5e9daf7",
        "gas": "0xeb8b",
        "value": "0x0",
        "input": "0x8c27639e00000000000000000000000000000000000000000000000000000000005c4900",
        "nonce": "0x251",
        "chainId": "0x14a34"
      },
      "additionalContracts": [],
      "isFixedGasLimit": false
    },
    {
      "hash": "0x18f6f24b14725a3349b94fc27c6432c025aca7673196369528786f19e3ce1399",
      "transactionType": "CALL",
      "contractName": null,
      "contractAddress": "0x83db36dbb464ab3741f3b48d3cdfdba3a5e9daf7",
      "function": "setLandPrice(uint256)",
      "arguments": [
        "100000000000000000000"
      ],
      "transaction": {
        "from": "0xf471539c814e59323cce676435067470565e38fa",
        "to": "0x83db36dbb464ab3741f3b48d3cdfdba3a5e9daf7",
        "gas": "0xf8dd",
        "value": "0x0",
        "input": "0x022565f10000000000000000000000000000000000000000000000056bc75e2d63100000",
        "nonce": "0x252",
        "chainId": "0x14a34"
      },
      "additionalContracts": [],
      "isFixedGasLimit": false
    },
    {
      "hash": "0x2c50fd708039a0b333b0890bd3d6203051d639ae7a4c0e60fb6382174a49ba22",
      "transactionType": "CALL",
      "contractName": null,
      "contractAddress": "0xdfb4a6acf90a4476d1dafb4f9c999a98c54b1513",
      "function": "setSkillBlocks(uint256,uint256)",
      "arguments": [
        "100",
        "1"
      ],
      "transaction": {
        "from": "0xf471539c814e59323cce676435067470565e38fa",
        "to": "0xdfb4a6acf90a4476d1dafb4f9c999a98c54b1513",
        "gas": "0x11a18",
        "value": "0x0",
        "input": "0x2943757b00000000000000000000000000000000000000000000000000000000000000640000000000000000000000000000000000000000000000000000000000000001",
        "nonce": "0x253",
        "chainId": "0x14a34"
      },
      "additionalContracts": [],
      "isFixedGasLimit": false
    },
    {
      "hash": "0xbf0311424b38efc6ed8090ae6c654ce27ff44e6f5f8314c1849c64cbd788f26e",
      "transactionType": "CALL",
      "contractName": null,
      "contractAddress": "0xdfb4a6acf90a4476d1dafb4f9c999a98c54b1513",
      "function": "setSkillBlocks(uint256,uint256)",
      "arguments": [
        "100",
        "2"
      ],
      "transaction": {
        "from": "0xf471539c814e59323cce676435067470565e38fa",
        "to": "0xdfb4a6acf90a4476d1dafb4f9c999a98c54b1513",
        "gas": "0xbdd5",
        "value": "0x0",
        "input": "0x2943757b00000000000000000000000000000000000000000000000000000000000000640000000000000000000000000000000000000000000000000000000000000002",
        "nonce": "0x254",
        "chainId": "0x14a34"
      },
      "additionalContracts": [],
      "isFixedGasLimit": false
    },
    {
      "hash": "0xf238b1a3bcc0bc05724403e1b5f1bcec4c6c4f8237c18ff320d6687273fc3625",
      "transactionType": "CALL",
      "contractName": null,
      "contractAddress": "0xdfb4a6acf90a4476d1dafb4f9c999a98c54b1513",
      "function": "setSkillBlocks(uint256,uint256)",
      "arguments": [
        "100",
        "3"
      ],
      "transaction": {
        "from": "0xf471539c814e59323cce676435067470565e38fa",
        "to": "0xdfb4a6acf90a4476d1dafb4f9c999a98c54b1513",
        "gas": "0xbdd5",
        "value": "0x0",
        "input": "0x2943757b00000000000000000000000000000000000000000000000000000000000000640000000000000000000000000000000000000000000000000000000000000003",
        "nonce": "0x255",
        "chainId": "0x14a34"
      },
      "additionalContracts": [],
      "isFixedGasLimit": false
    },
    {
      "hash": "0xb286a1e8e298383b1e9195153a04df86a589078466e16c468c87532f155d4db6",
      "transactionType": "CALL",
      "contractName": null,
      "contractAddress": "0xdfb4a6acf90a4476d1dafb4f9c999a98c54b1513",
      "function": "setRecipe(uint256,uint256[],uint256[],uint256,uint256,uint256)",
      "arguments": [
        "1",
        "[1, 2]",
        "[10, 5]",
        "1",
        "300",
        "1001"
      ],
      "transaction": {
        "from": "0xf471539c814e59323cce676435067470565e38fa",
        "to": "0xdfb4a6acf90a4476d1dafb4f9c999a98c54b1513",
        "gas": "0x40d5c",
        "value": "0x0",
        "input": "0xf4d2121f000000000000000000000000000000000000000000000000000000000000000100000000000000000000000000000000000000000000000000000000000000c000000000000000000000000000000000000000000000000000000000000001200000000000000000000000000000000000000000000000000000000000000001000000000000000000000000000000000000000000000000000000000000012c00000000000000000000000000000000000000000000000000000000000003e90000000000000000000000000000000000000000000000000000000000000002000000000000000000000000000000000000000000000000000000000000000100000000000000000000000000000000000000000000000000000000000000020000000000000000000000000000000000000000000000000000000000000002000000000000000000000000000000000000000000000000000000000000000a0000000000000000000000000000000000000000000000000000000000000005",
        "nonce": "0x256",
        "chainId": "0x14a34"
      },
      "additionalContracts": [],
      "isFixedGasLimit": false
    },
    {
      "hash": "0x85729e0af5644c1931d1ce6f4d818def97f85cc2540484226bfb8e27b25e6502",
      "transactionType": "CALL",
      "contractName": null,
      "contractAddress": "0xdfb4a6acf90a4476d1dafb4f9c999a98c54b1513",
      "function": "setRecipe(uint256,uint256[],uint256[],uint256,uint256,uint256)",
      "arguments": [
        "2",
        "[2, 3]",
        "[12, 6]",
        "2",
        "500",
        "1002"
      ],
      "transaction": {
        "from": "0xf471539c814e59323cce676435067470565e38fa",
        "to": "0xdfb4a6acf90a4476d1dafb4f9c999a98c54b1513",
        "gas": "0x40d5c",
        "value": "0x0",
        "input": "0xf4d2121f000000000000000000000000000000000000000000000000000000000000000200000000000000000000000000000000000000000000000000000000000000c00000000000000000000000000000000000000000000000000000000000000120000000000000000000000000000000000000000000000000000000000000000200000000000000000000000000000000000000000000000000000000000001f400000000000000000000000000000000000000000000000000000000000003ea0000000000000000000000000000000000000000000000000000000000000002000000000000000000000000000000000000000000000000000000000000000200000000000000000000000000000000000000000000000000000000000000030000000000000000000000000000000000000000000000000000000000000002000000000000000000000000000000000000000000000000000000000000000c0000000000000000000000000000000000000000000000000000000000000006",
        "nonce": "0x257",
        "chainId": "0x14a34"
      },
      "additionalContracts": [],
      "isFixedGasLimit": false
    },
    {
      "hash": "0xd52927bb58997d31660b23f7a8025fb09413ebfb9cea3d312118f7410f102e6c",
      "transactionType": "CALL",
      "contractName": null,
      "contractAddress": "0xdfb4a6acf90a4476d1dafb4f9c999a98c54b1513",
      "function": "setEquipmentConfig(uint256,uint256,int256,int256,int256,int256,int256)",
      "arguments": [
        "2",
        "0",
        "1001",
        "10",
        "0",
        "1",
        "1"
      ],
      "transaction": {
        "from": "0xf471539c814e59323cce676435067470565e38fa",
        "to": "0xdfb4a6acf90a4476d1dafb4f9c999a98c54b1513",
        "gas": "0x1289d",
        "value": "0x0",
        "input": "0x7308956e0000000000000000000000000000000000000000000000000000000000000002000000000000000000000000000000000000000000000000000000000000000000000000000000000000000000000000000000000000000000000000000003e9000000000000000000000000000000000000000000000000000000000000000a000000000000000000000000000000000000000000000000000000000000000000000000000000000000000000000000000000000000000000000000000000010000000000000000000000000000000000000000000000000000000000000001",
        "nonce": "0x258",
        "chainId": "0x14a34"
      },
      "additionalContracts": [],
      "isFixedGasLimit": false
    },
    {
      "hash": "0xc7425d34cc35317a6032cd6bdbc999e3d7b5c3d6fab2b23343bd21d0fda05a65",
      "transactionType": "CALL",
      "contractName": null,
      "contractAddress": "0xdfb4a6acf90a4476d1dafb4f9c999a98c54b1513",
      "function": "setEquipmentConfig(uint256,uint256,int256,int256,int256,int256,int256)",
      "arguments": [
        "3",
        "1",
        "1002",
        "20",
        "1",
        "2",
        "0"
      ],
      "transaction": {
        "from": "0xf471539c814e59323cce676435067470565e38fa",
        "to": "0xdfb4a6acf90a4476d1dafb4f9c999a98c54b1513",
        "gas": "0x13a22",
        "value": "0x0",
        "input": "0x7308956e0000000000000000000000000000000000000000000000000000000000000003000000000000000000000000000000000000000000000000000000000000000100000000000000000000000000000000000000000000000000000000000003ea0000000000000000000000000000000000000000000000000000000000000014000000000000000000000000000000000000000000000000000000000000000100000000000000000000000000000000000000000000000000000000000000020000000000000000000000000000000000000000000000000000000000000000",
        "nonce": "0x259",
        "chainId": "0x14a34"
      },
      "additionalContracts": [],
      "isFixedGasLimit": false
    }
  ],
  "receipts": [
    {
      "status": "0x1",
      "cumulativeGasUsed": "0x7acd4f",
      "logs": [
        {
          "address": "0x83db36dbb464ab3741f3b48d3cdfdba3a5e9daf7",
          "topics": [
            "0x9e4d7d58977fad6b5dff76d30152ee095a49edb185464cfdc244a0674b26d383"
          ],
          "data": "0x000000000000000000000000000000000000000000000000000000000000271000000000000000000000000000000000000000000000000000000000000027100000000000000000000000000000000000000000000000000000000000000064000000000000000000000000000000000000000000000002b5e3af16b18800000000000000000000000000000000000000000000000000000000000000000fa00000000000000000000000000000000000000000000000000000000000000e1000000000000000000000000000000000000000000000000000000000005c49000000000000000000000000000000000000000000000000056bc75e2d63100000",
          "blockHash": "0x0000000000000000000000000000000000000000000000000000000000000000",
          "blockNumber": "0x2517cc2",
          "blockTimestamp": "0x69b65864",
          "transactionHash": "0xc4edcadd8d1db9e5c8311be3b47f0603168c95ab1ce4a0bce958ffcc175247bc",
          "transactionIndex": "0x16",
          "logIndex": "0x128",
          "removed": false
        }
      ],
      "logsBloom": "0x00000000000000000000000000000000000000000000000000000000000000000000000000000000000000000000000000000000000000000000000000000000000000000000000000000000000000000000001000000000000200000000000000100000000000000000000000001000000000000000000000000000000000000000000000000000000000000000000000000000000000000000000000000000000000000000000000000000001000000000000000000000000000000000000000000000000000000000000000000000000000000000000000000000000000000000000000000000000000000000000000000000000400000000000000000000",
      "type": "0x2",
      "transactionHash": "0xc4edcadd8d1db9e5c8311be3b47f0603168c95ab1ce4a0bce958ffcc175247bc",
      "transactionIndex": "0x16",
      "blockHash": "0x0000000000000000000000000000000000000000000000000000000000000000",
      "blockNumber": "0x2517cc2",
      "gasUsed": "0xabc5",
      "effectiveGasPrice": "0x5b8d80",
      "blobGasUsed": "0x364c",
      "from": "0xf471539c814e59323cce676435067470565e38fa",
      "to": "0x83db36dbb464ab3741f3b48d3cdfdba3a5e9daf7",
      "contractAddress": null,
      "daFootprintGasScalar": "0x8b",
      "l1BaseFeeScalar": "0x44d",
      "l1BlobBaseFee": "0x1",
      "l1BlobBaseFeeScalar": "0xa118b",
      "l1Fee": "0x55",
      "l1GasPrice": "0xb",
      "l1GasUsed": "0x640"
    },
    {
      "status": "0x1",
      "cumulativeGasUsed": "0x7b7839",
      "logs": [
        {
          "address": "0x83db36dbb464ab3741f3b48d3cdfdba3a5e9daf7",
          "topics": [
            "0x9e4d7d58977fad6b5dff76d30152ee095a49edb185464cfdc244a0674b26d383"
          ],
          "data": "0x000000000000000000000000000000000000000000000000000000000000271000000000000000000000000000000000000000000000000000000000000027100000000000000000000000000000000000000000000000000000000000000064000000000000000000000000000000000000000000000002b5e3af16b18800000000000000000000000000000000000000000000000000000000000000000fa00000000000000000000000000000000000000000000000000000000000000e1000000000000000000000000000000000000000000000000000000000005c49000000000000000000000000000000000000000000000000056bc75e2d63100000",
          "blockHash": "0x0000000000000000000000000000000000000000000000000000000000000000",
          "blockNumber": "0x2517cc2",
          "blockTimestamp": "0x69b65864",
          "transactionHash": "0xe11c52147b932acb86b5fd28f4e115e843ad4bfa43707291bb531a5153dd37c8",
          "transactionIndex": "0x17",
          "logIndex": "0x129",
          "removed": false
        }
      ],
      "logsBloom": "0x00000000000000000000000000000000000000000000000000000000000000000000000000000000000000000000000000000000000000000000000000000000000000000000000000000000000000000000001000000000000200000000000000100000000000000000000000001000000000000000000000000000000000000000000000000000000000000000000000000000000000000000000000000000000000000000000000000000001000000000000000000000000000000000000000000000000000000000000000000000000000000000000000000000000000000000000000000000000000000000000000000000000400000000000000000000",
      "type": "0x2",
      "transactionHash": "0xe11c52147b932acb86b5fd28f4e115e843ad4bfa43707291bb531a5153dd37c8",
      "transactionIndex": "0x17",
      "blockHash": "0x0000000000000000000000000000000000000000000000000000000000000000",
      "blockNumber": "0x2517cc2",
      "gasUsed": "0xaaea",
      "effectiveGasPrice": "0x5b8d80",
      "blobGasUsed": "0x364c",
      "from": "0xf471539c814e59323cce676435067470565e38fa",
      "to": "0x83db36dbb464ab3741f3b48d3cdfdba3a5e9daf7",
      "contractAddress": null,
      "daFootprintGasScalar": "0x8b",
      "l1BaseFeeScalar": "0x44d",
      "l1BlobBaseFee": "0x1",
      "l1BlobBaseFeeScalar": "0xa118b",
      "l1Fee": "0x55",
      "l1GasPrice": "0xb",
      "l1GasUsed": "0x640"
    },
    {
      "status": "0x1",
      "cumulativeGasUsed": "0x7c2384",
      "logs": [
        {
          "address": "0x83db36dbb464ab3741f3b48d3cdfdba3a5e9daf7",
          "topics": [
            "0x9e4d7d58977fad6b5dff76d30152ee095a49edb185464cfdc244a0674b26d383"
          ],
          "data": "0x000000000000000000000000000000000000000000000000000000000000271000000000000000000000000000000000000000000000000000000000000027100000000000000000000000000000000000000000000000000000000000000064000000000000000000000000000000000000000000000002b5e3af16b18800000000000000000000000000000000000000000000000000000000000000000fa00000000000000000000000000000000000000000000000000000000000000e1000000000000000000000000000000000000000000000000000000000005c49000000000000000000000000000000000000000000000000056bc75e2d63100000",
          "blockHash": "0x0000000000000000000000000000000000000000000000000000000000000000",
          "blockNumber": "0x2517cc2",
          "blockTimestamp": "0x69b65864",
          "transactionHash": "0xe19aba74da7441c6921f10108dba7cb39825a8a253cc4cb744af5e2cb03a9077",
          "transactionIndex": "0x18",
          "logIndex": "0x12a",
          "removed": false
        }
      ],
      "logsBloom": "0x00000000000000000000000000000000000000000000000000000000000000000000000000000000000000000000000000000000000000000000000000000000000000000000000000000000000000000000001000000000000200000000000000100000000000000000000000001000000000000000000000000000000000000000000000000000000000000000000000000000000000000000000000000000000000000000000000000000001000000000000000000000000000000000000000000000000000000000000000000000000000000000000000000000000000000000000000000000000000000000000000000000000400000000000000000000",
      "type": "0x2",
      "transactionHash": "0xe19aba74da7441c6921f10108dba7cb39825a8a253cc4cb744af5e2cb03a9077",
      "transactionIndex": "0x18",
      "blockHash": "0x0000000000000000000000000000000000000000000000000000000000000000",
      "blockNumber": "0x2517cc2",
      "gasUsed": "0xab4b",
      "effectiveGasPrice": "0x5b8d80",
      "blobGasUsed": "0x364c",
      "from": "0xf471539c814e59323cce676435067470565e38fa",
      "to": "0x83db36dbb464ab3741f3b48d3cdfdba3a5e9daf7",
      "contractAddress": null,
      "daFootprintGasScalar": "0x8b",
      "l1BaseFeeScalar": "0x44d",
      "l1BlobBaseFee": "0x1",
      "l1BlobBaseFeeScalar": "0xa118b",
      "l1Fee": "0x55",
      "l1GasPrice": "0xb",
      "l1GasUsed": "0x640"
    },
    {
      "status": "0x1",
      "cumulativeGasUsed": "0x7ccdb4",
      "logs": [
        {
          "address": "0x83db36dbb464ab3741f3b48d3cdfdba3a5e9daf7",
          "topics": [
            "0x9e4d7d58977fad6b5dff76d30152ee095a49edb185464cfdc244a0674b26d383"
          ],
          "data": "0x000000000000000000000000000000000000000000000000000000000000271000000000000000000000000000000000000000000000000000000000000027100000000000000000000000000000000000000000000000000000000000000064000000000000000000000000000000000000000000000002b5e3af16b18800000000000000000000000000000000000000000000000000000000000000000fa00000000000000000000000000000000000000000000000000000000000000e1000000000000000000000000000000000000000000000000000000000005c49000000000000000000000000000000000000000000000000056bc75e2d63100000",
          "blockHash": "0x0000000000000000000000000000000000000000000000000000000000000000",
          "blockNumber": "0x2517cc2",
          "blockTimestamp": "0x69b65864",
          "transactionHash": "0x49ef2973db0f79edf7c0d322791b384a923a1cecc4664d11a5faef1441ad73c2",
          "transactionIndex": "0x19",
          "logIndex": "0x12b",
          "removed": false
        }
      ],
      "logsBloom": "0x00000000000000000000000000000000000000000000000000000000000000000000000000000000000000000000000000000000000000000000000000000000000000000000000000000000000000000000001000000000000200000000000000100000000000000000000000001000000000000000000000000000000000000000000000000000000000000000000000000000000000000000000000000000000000000000000000000000001000000000000000000000000000000000000000000000000000000000000000000000000000000000000000000000000000000000000000000000000000000000000000000000000400000000000000000000",
      "type": "0x2",
      "transactionHash": "0x49ef2973db0f79edf7c0d322791b384a923a1cecc4664d11a5faef1441ad73c2",
      "transactionIndex": "0x19",
      "blockHash": "0x0000000000000000000000000000000000000000000000000000000000000000",
      "blockNumber": "0x2517cc2",
      "gasUsed": "0xaa30",
      "effectiveGasPrice": "0x5b8d80",
      "blobGasUsed": "0x364c",
      "from": "0xf471539c814e59323cce676435067470565e38fa",
      "to": "0x83db36dbb464ab3741f3b48d3cdfdba3a5e9daf7",
      "contractAddress": null,
      "daFootprintGasScalar": "0x8b",
      "l1BaseFeeScalar": "0x44d",
      "l1BlobBaseFee": "0x1",
      "l1BlobBaseFeeScalar": "0xa118b",
      "l1Fee": "0x55",
      "l1GasPrice": "0xb",
      "l1GasUsed": "0x640"
    },
    {
      "status": "0x1",
      "cumulativeGasUsed": "0x7d77ce",
      "logs": [
        {
          "address": "0x83db36dbb464ab3741f3b48d3cdfdba3a5e9daf7",
          "topics": [
            "0x9e4d7d58977fad6b5dff76d30152ee095a49edb185464cfdc244a0674b26d383"
          ],
          "data": "0x000000000000000000000000000000000000000000000000000000000000271000000000000000000000000000000000000000000000000000000000000027100000000000000000000000000000000000000000000000000000000000000064000000000000000000000000000000000000000000000002b5e3af16b18800000000000000000000000000000000000000000000000000000000000000000fa00000000000000000000000000000000000000000000000000000000000000e1000000000000000000000000000000000000000000000000000000000005c49000000000000000000000000000000000000000000000000056bc75e2d63100000",
          "blockHash": "0x0000000000000000000000000000000000000000000000000000000000000000",
          "blockNumber": "0x2517cc2",
          "blockTimestamp": "0x69b65864",
          "transactionHash": "0xc88cc859e339be3184101aa35ab9540a1874dd9a380936bd2a8c54dd89ad3a3e",
          "transactionIndex": "0x1a",
          "logIndex": "0x12c",
          "removed": false
        }
      ],
      "logsBloom": "0x00000000000000000000000000000000000000000000000000000000000000000000000000000000000000000000000000000000000000000000000000000000000000000000000000000000000000000000001000000000000200000000000000100000000000000000000000001000000000000000000000000000000000000000000000000000000000000000000000000000000000000000000000000000000000000000000000000000001000000000000000000000000000000000000000000000000000000000000000000000000000000000000000000000000000000000000000000000000000000000000000000000000400000000000000000000",
      "type": "0x2",
      "transactionHash": "0xc88cc859e339be3184101aa35ab9540a1874dd9a380936bd2a8c54dd89ad3a3e",
      "transactionIndex": "0x1a",
      "blockHash": "0x0000000000000000000000000000000000000000000000000000000000000000",
      "blockNumber": "0x2517cc2",
      "gasUsed": "0xaa1a",
      "effectiveGasPrice": "0x5b8d80",
      "blobGasUsed": "0x364c",
      "from": "0xf471539c814e59323cce676435067470565e38fa",
      "to": "0x83db36dbb464ab3741f3b48d3cdfdba3a5e9daf7",
      "contractAddress": null,
      "daFootprintGasScalar": "0x8b",
      "l1BaseFeeScalar": "0x44d",
      "l1BlobBaseFee": "0x1",
      "l1BlobBaseFeeScalar": "0xa118b",
      "l1Fee": "0x55",
      "l1GasPrice": "0xb",
      "l1GasUsed": "0x640"
    },
    {
      "status": "0x1",
      "cumulativeGasUsed": "0x7e2256",
      "logs": [
        {
          "address": "0x83db36dbb464ab3741f3b48d3cdfdba3a5e9daf7",
          "topics": [
            "0x9e4d7d58977fad6b5dff76d30152ee095a49edb185464cfdc244a0674b26d383"
          ],
          "data": "0x000000000000000000000000000000000000000000000000000000000000271000000000000000000000000000000000000000000000000000000000000027100000000000000000000000000000000000000000000000000000000000000064000000000000000000000000000000000000000000000002b5e3af16b18800000000000000000000000000000000000000000000000000000000000000000fa00000000000000000000000000000000000000000000000000000000000000e1000000000000000000000000000000000000000000000000000000000005c49000000000000000000000000000000000000000000000000056bc75e2d63100000",
          "blockHash": "0x0000000000000000000000000000000000000000000000000000000000000000",
          "blockNumber": "0x2517cc2",
          "blockTimestamp": "0x69b65864",
          "transactionHash": "0xe32e81ecc93544f0a0d5af1ce80b0aea9b5bec2557feb26c788712e55efd80be",
          "transactionIndex": "0x1b",
          "logIndex": "0x12d",
          "removed": false
        }
      ],
      "logsBloom": "0x00000000000000000000000000000000000000000000000000000000000000000000000000000000000000000000000000000000000000000000000000000000000000000000000000000000000000000000001000000000000200000000000000100000000000000000000000001000000000000000000000000000000000000000000000000000000000000000000000000000000000000000000000000000000000000000000000000000001000000000000000000000000000000000000000000000000000000000000000000000000000000000000000000000000000000000000000000000000000000000000000000000000400000000000000000000",
      "type": "0x2",
      "transactionHash": "0xe32e81ecc93544f0a0d5af1ce80b0aea9b5bec2557feb26c788712e55efd80be",
      "transactionIndex": "0x1b",
      "blockHash": "0x0000000000000000000000000000000000000000000000000000000000000000",
      "blockNumber": "0x2517cc2",
      "gasUsed": "0xaa88",
      "effectiveGasPrice": "0x5b8d80",
      "blobGasUsed": "0x364c",
      "from": "0xf471539c814e59323cce676435067470565e38fa",
      "to": "0x83db36dbb464ab3741f3b48d3cdfdba3a5e9daf7",
      "contractAddress": null,
      "daFootprintGasScalar": "0x8b",
      "l1BaseFeeScalar": "0x44d",
      "l1BlobBaseFee": "0x1",
      "l1BlobBaseFeeScalar": "0xa118b",
      "l1Fee": "0x55",
      "l1GasPrice": "0xb",
      "l1GasUsed": "0x640"
    },
    {
      "status": "0x1",
      "cumulativeGasUsed": "0x7ecc80",
      "logs": [
        {
          "address": "0x83db36dbb464ab3741f3b48d3cdfdba3a5e9daf7",
          "topics": [
            "0x9e4d7d58977fad6b5dff76d30152ee095a49edb185464cfdc244a0674b26d383"
          ],
          "data": "0x000000000000000000000000000000000000000000000000000000000000271000000000000000000000000000000000000000000000000000000000000027100000000000000000000000000000000000000000000000000000000000000064000000000000000000000000000000000000000000000002b5e3af16b18800000000000000000000000000000000000000000000000000000000000000000fa00000000000000000000000000000000000000000000000000000000000000e1000000000000000000000000000000000000000000000000000000000005c49000000000000000000000000000000000000000000000000056bc75e2d63100000",
          "blockHash": "0x6f5ed752f7a093be6a9075a2b69544c379a81dca80fbbfd17f10a9c8a0093766",
          "blockNumber": "0x2517cc2",
          "blockTimestamp": "0x69b65864",
          "transactionHash": "0x18f6f24b14725a3349b94fc27c6432c025aca7673196369528786f19e3ce1399",
          "transactionIndex": "0x1c",
          "logIndex": "0x12e",
          "removed": false
        }
      ],
      "logsBloom": "0x00000000000000000000000000000000000000000000000000000000000000000000000000000000000000000000000000000000000000000000000000000000000000000000000000000000000000000000001000000000000200000000000000100000000000000000000000001000000000000000000000000000000000000000000000000000000000000000000000000000000000000000000000000000000000000000000000000000001000000000000000000000000000000000000000000000000000000000000000000000000000000000000000000000000000000000000000000000000000000000000000000000000400000000000000000000",
      "type": "0x2",
      "transactionHash": "0x18f6f24b14725a3349b94fc27c6432c025aca7673196369528786f19e3ce1399",
      "transactionIndex": "0x1c",
      "blockHash": "0x6f5ed752f7a093be6a9075a2b69544c379a81dca80fbbfd17f10a9c8a0093766",
      "blockNumber": "0x2517cc2",
      "gasUsed": "0xaa2a",
      "effectiveGasPrice": "0x5b8d80",
      "blobGasUsed": "0x364c",
      "from": "0xf471539c814e59323cce676435067470565e38fa",
      "to": "0x83db36dbb464ab3741f3b48d3cdfdba3a5e9daf7",
      "contractAddress": null,
      "daFootprintGasScalar": "0x8b",
      "l1BaseFeeScalar": "0x44d",
      "l1BlobBaseFee": "0x1",
      "l1BlobBaseFeeScalar": "0xa118b",
      "l1Fee": "0x55",
      "l1GasPrice": "0xb",
      "l1GasUsed": "0x640"
    },
    {
      "status": "0x1",
      "cumulativeGasUsed": "0x8089f4",
      "logs": [
        {
          "address": "0xdfb4a6acf90a4476d1dafb4f9c999a98c54b1513",
          "topics": [
            "0xfaf01e391839b9314016e4b595de00db1810f1f4760a9e034687fb378ec3cf53",
            "0x0000000000000000000000000000000000000000000000000000000000000064"
          ],
          "data": "0x0000000000000000000000000000000000000000000000000000000000000001",
          "blockHash": "0x0000000000000000000000000000000000000000000000000000000000000000",
          "blockNumber": "0x2517cc2",
          "blockTimestamp": "0x69b65864",
          "transactionHash": "0x2c50fd708039a0b333b0890bd3d6203051d639ae7a4c0e60fb6382174a49ba22",
          "transactionIndex": "0x1f",
          "logIndex": "0x12f",
          "removed": false
        }
      ],
      "logsBloom": "0x00000000000000000000000800000000000000000000008000000000000000000000000000000000000000000000000000010000000000000000000000080000000000000000000000000000000000000000000000000000000000000000000000000000000000000000000000000000200000000000000000000000008000000000000000000000000000000000000000000000000000000000000000000000000000000000000000000000000000000000000000000000000000000000000000000000000000000000000000000000000000000000000002000001000000000000000000000000000000000000000000000000000000008000000000000000",
      "type": "0x2",
      "transactionHash": "0x2c50fd708039a0b333b0890bd3d6203051d639ae7a4c0e60fb6382174a49ba22",
      "transactionIndex": "0x1f",
      "blockHash": "0x0000000000000000000000000000000000000000000000000000000000000000",
      "blockNumber": "0x2517cc2",
      "gasUsed": "0xcc3c",
      "effectiveGasPrice": "0x5b8d80",
      "blobGasUsed": "0x364c",
      "from": "0xf471539c814e59323cce676435067470565e38fa",
      "to": "0xdfb4a6acf90a4476d1dafb4f9c999a98c54b1513",
      "contractAddress": null,
      "daFootprintGasScalar": "0x8b",
      "l1BaseFeeScalar": "0x44d",
      "l1BlobBaseFee": "0x1",
      "l1BlobBaseFeeScalar": "0xa118b",
      "l1Fee": "0x55",
      "l1GasPrice": "0xb",
      "l1GasUsed": "0x640"
    },
    {
      "status": "0x1",
      "cumulativeGasUsed": "0x811364",
      "logs": [
        {
          "address": "0xdfb4a6acf90a4476d1dafb4f9c999a98c54b1513",
          "topics": [
            "0xfaf01e391839b9314016e4b595de00db1810f1f4760a9e034687fb378ec3cf53",
            "0x0000000000000000000000000000000000000000000000000000000000000064"
          ],
          "data": "0x0000000000000000000000000000000000000000000000000000000000000002",
          "blockHash": "0x0000000000000000000000000000000000000000000000000000000000000000",
          "blockNumber": "0x2517cc2",
          "blockTimestamp": "0x69b65864",
          "transactionHash": "0xbf0311424b38efc6ed8090ae6c654ce27ff44e6f5f8314c1849c64cbd788f26e",
          "transactionIndex": "0x20",
          "logIndex": "0x130",
          "removed": false
        }
      ],
      "logsBloom": "0x00000000000000000000000800000000000000000000008000000000000000000000000000000000000000000000000000010000000000000000000000080000000000000000000000000000000000000000000000000000000000000000000000000000000000000000000000000000200000000000000000000000008000000000000000000000000000000000000000000000000000000000000000000000000000000000000000000000000000000000000000000000000000000000000000000000000000000000000000000000000000000000000002000001000000000000000000000000000000000000000000000000000000008000000000000000",
      "type": "0x2",
      "transactionHash": "0xbf0311424b38efc6ed8090ae6c654ce27ff44e6f5f8314c1849c64cbd788f26e",
      "transactionIndex": "0x20",
      "blockHash": "0x0000000000000000000000000000000000000000000000000000000000000000",
      "blockNumber": "0x2517cc2",
      "gasUsed": "0x8970",
      "effectiveGasPrice": "0x5b8d80",
      "blobGasUsed": "0x364c",
      "from": "0xf471539c814e59323cce676435067470565e38fa",
      "to": "0xdfb4a6acf90a4476d1dafb4f9c999a98c54b1513",
      "contractAddress": null,
      "daFootprintGasScalar": "0x8b",
      "l1BaseFeeScalar": "0x44d",
      "l1BlobBaseFee": "0x1",
      "l1BlobBaseFeeScalar": "0xa118b",
      "l1Fee": "0x55",
      "l1GasPrice": "0xb",
      "l1GasUsed": "0x640"
    },
    {
      "status": "0x1",
      "cumulativeGasUsed": "0x819cd4",
      "logs": [
        {
          "address": "0xdfb4a6acf90a4476d1dafb4f9c999a98c54b1513",
          "topics": [
            "0xfaf01e391839b9314016e4b595de00db1810f1f4760a9e034687fb378ec3cf53",
            "0x0000000000000000000000000000000000000000000000000000000000000064"
          ],
          "data": "0x0000000000000000000000000000000000000000000000000000000000000003",
          "blockHash": "0x0000000000000000000000000000000000000000000000000000000000000000",
          "blockNumber": "0x2517cc2",
          "blockTimestamp": "0x69b65864",
          "transactionHash": "0xf238b1a3bcc0bc05724403e1b5f1bcec4c6c4f8237c18ff320d6687273fc3625",
          "transactionIndex": "0x21",
          "logIndex": "0x131",
          "removed": false
        }
      ],
      "logsBloom": "0x00000000000000000000000800000000000000000000008000000000000000000000000000000000000000000000000000010000000000000000000000080000000000000000000000000000000000000000000000000000000000000000000000000000000000000000000000000000200000000000000000000000008000000000000000000000000000000000000000000000000000000000000000000000000000000000000000000000000000000000000000000000000000000000000000000000000000000000000000000000000000000000000002000001000000000000000000000000000000000000000000000000000000008000000000000000",
      "type": "0x2",
      "transactionHash": "0xf238b1a3bcc0bc05724403e1b5f1bcec4c6c4f8237c18ff320d6687273fc3625",
      "transactionIndex": "0x21",
      "blockHash": "0x0000000000000000000000000000000000000000000000000000000000000000",
      "blockNumber": "0x2517cc2",
      "gasUsed": "0x8970",
      "effectiveGasPrice": "0x5b8d80",
      "blobGasUsed": "0x364c",
      "from": "0xf471539c814e59323cce676435067470565e38fa",
      "to": "0xdfb4a6acf90a4476d1dafb4f9c999a98c54b1513",
      "contractAddress": null,
      "daFootprintGasScalar": "0x8b",
      "l1BaseFeeScalar": "0x44d",
      "l1BlobBaseFee": "0x1",
      "l1BlobBaseFeeScalar": "0xa118b",
      "l1Fee": "0x55",
      "l1GasPrice": "0xb",
      "l1GasUsed": "0x640"
    },
    {
      "status": "0x1",
      "cumulativeGasUsed": "0x848bdc",
      "logs": [
        {
          "address": "0xdfb4a6acf90a4476d1dafb4f9c999a98c54b1513",
          "topics": [
            "0x61efd0b1dbeda4068485a02a959e1838589750e4db234173be7266e27e76e597",
            "0x0000000000000000000000000000000000000000000000000000000000000001"
          ],
          "data": "0x00000000000000000000000000000000000000000000000000000000000000a000000000000000000000000000000000000000000000000000000000000001000000000000000000000000000000000000000000000000000000000000000001000000000000000000000000000000000000000000000000000000000000012c00000000000000000000000000000000000000000000000000000000000003e90000000000000000000000000000000000000000000000000000000000000002000000000000000000000000000000000000000000000000000000000000000100000000000000000000000000000000000000000000000000000000000000020000000000000000000000000000000000000000000000000000000000000002000000000000000000000000000000000000000000000000000000000000000a0000000000000000000000000000000000000000000000000000000000000005",
          "blockHash": "0x6f5ed752f7a093be6a9075a2b69544c379a81dca80fbbfd17f10a9c8a0093766",
          "blockNumber": "0x2517cc2",
          "blockTimestamp": "0x69b65864",
          "transactionHash": "0xb286a1e8e298383b1e9195153a04df86a589078466e16c468c87532f155d4db6",
          "transactionIndex": "0x22",
          "logIndex": "0x132",
          "removed": false
        }
      ],
      "logsBloom": "0x00000000000000000000000800000000000000000000000000000000000000000000000000000000000000000000000000000004000000000000000000040000000008000000000000000000000000000000000000040000000000000000000000000000000000000000000000000000200000000000000000000000008000000080000000000000000000000000000000000000000000000000000000000000000000000000000000000000000000000000000000000000000000000000000000000000000000000000000000000000000000000000000000000000000040000000000000000000000000000000000000000000000000000000000000000000",
      "type": "0x2",
      "transactionHash": "0xb286a1e8e298383b1e9195153a04df86a589078466e16c468c87532f155d4db6",
      "transactionIndex": "0x22",
      "blockHash": "0x6f5ed752f7a093be6a9075a2b69544c379a81dca80fbbfd17f10a9c8a0093766",
      "blockNumber": "0x2517cc2",
      "gasUsed": "0x2ef08",
      "effectiveGasPrice": "0x5b8d80",
      "blobGasUsed": "0x4012",
      "from": "0xf471539c814e59323cce676435067470565e38fa",
      "to": "0xdfb4a6acf90a4476d1dafb4f9c999a98c54b1513",
      "contractAddress": null,
      "daFootprintGasScalar": "0x8b",
      "l1BaseFeeScalar": "0x44d",
      "l1BlobBaseFee": "0x1",
      "l1BlobBaseFeeScalar": "0xa118b",
      "l1Fee": "0x65",
      "l1GasPrice": "0xb",
      "l1GasUsed": "0x76d"
    },
    {
      "status": "0x1",
      "cumulativeGasUsed": "0x877ae4",
      "logs": [
        {
          "address": "0xdfb4a6acf90a4476d1dafb4f9c999a98c54b1513",
          "topics": [
            "0x61efd0b1dbeda4068485a02a959e1838589750e4db234173be7266e27e76e597",
            "0x0000000000000000000000000000000000000000000000000000000000000002"
          ],
          "data": "0x00000000000000000000000000000000000000000000000000000000000000a00000000000000000000000000000000000000000000000000000000000000100000000000000000000000000000000000000000000000000000000000000000200000000000000000000000000000000000000000000000000000000000001f400000000000000000000000000000000000000000000000000000000000003ea0000000000000000000000000000000000000000000000000000000000000002000000000000000000000000000000000000000000000000000000000000000200000000000000000000000000000000000000000000000000000000000000030000000000000000000000000000000000000000000000000000000000000002000000000000000000000000000000000000000000000000000000000000000c0000000000000000000000000000000000000000000000000000000000000006",
          "blockHash": "0x6f5ed752f7a093be6a9075a2b69544c379a81dca80fbbfd17f10a9c8a0093766",
          "blockNumber": "0x2517cc2",
          "blockTimestamp": "0x69b65864",
          "transactionHash": "0x85729e0af5644c1931d1ce6f4d818def97f85cc2540484226bfb8e27b25e6502",
          "transactionIndex": "0x23",
          "logIndex": "0x133",
          "removed": false
        }
      ],
      "logsBloom": "0x04000000000000000000000800000000000000000000000000000000000000000000000000000000000000000000000000000004000000000000000000000000000008000000000000000000000000000000000000000000000000000000000000000000000000000000000000000000200000000000000000000000008000000080000000000000000000000000000000000000000000000000000000000000000000000000000000000100000000000000000000000000000000000000000000000000000000000000000000000000000000000000000000000000000000000000000000000000000000000000000000000000008000000000000000000000",
      "type": "0x2",
      "transactionHash": "0x85729e0af5644c1931d1ce6f4d818def97f85cc2540484226bfb8e27b25e6502",
      "transactionIndex": "0x23",
      "blockHash": "0x6f5ed752f7a093be6a9075a2b69544c379a81dca80fbbfd17f10a9c8a0093766",
      "blockNumber": "0x2517cc2",
      "gasUsed": "0x2ef08",
      "effectiveGasPrice": "0x5b8d80",
      "blobGasUsed": "0x4012",
      "from": "0xf471539c814e59323cce676435067470565e38fa",
      "to": "0xdfb4a6acf90a4476d1dafb4f9c999a98c54b1513",
      "contractAddress": null,
      "daFootprintGasScalar": "0x8b",
      "l1BaseFeeScalar": "0x44d",
      "l1BlobBaseFee": "0x1",
      "l1BlobBaseFeeScalar": "0xa118b",
      "l1Fee": "0x65",
      "l1GasPrice": "0xb",
      "l1GasUsed": "0x76d"
    },
    {
      "status": "0x1",
      "cumulativeGasUsed": "0x8851a3",
      "logs": [
        {
          "address": "0xdfb4a6acf90a4476d1dafb4f9c999a98c54b1513",
          "topics": [
            "0xe60708f6b66fedc0ecafb15e592a9d5a3284cf5c23a704486085053cea6fe8db",
            "0x0000000000000000000000000000000000000000000000000000000000000002",
            "0x0000000000000000000000000000000000000000000000000000000000000000"
          ],
          "data": "0x00000000000000000000000000000000000000000000000000000000000003e9000000000000000000000000000000000000000000000000000000000000000a000000000000000000000000000000000000000000000000000000000000000000000000000000000000000000000000000000000000000000000000000000010000000000000000000000000000000000000000000000000000000000000001",
          "blockHash": "0x6f5ed752f7a093be6a9075a2b69544c379a81dca80fbbfd17f10a9c8a0093766",
          "blockNumber": "0x2517cc2",
          "blockTimestamp": "0x69b65864",
          "transactionHash": "0xd52927bb58997d31660b23f7a8025fb09413ebfb9cea3d312118f7410f102e6c",
          "transactionIndex": "0x24",
          "logIndex": "0x134",
          "removed": false
        }
      ],
      "logsBloom": "0x04000000000000000000000800000000000000000000000000000000000000000000000000000000000000000000000000000000000000000000000000000000000000000000000000000000000000000000000000000000000000000000000000000000020000000000000000000800200000000000000000000000008000000000000000000200000000000000000000000000000000000000000000000000000000000000000000000100000000000000000000000000000000000000000000000000000000000000200000000000000000000000000000000000000020000000000000000000000000000000000000400000008000000000000000000000",
      "type": "0x2",
      "transactionHash": "0xd52927bb58997d31660b23f7a8025fb09413ebfb9cea3d312118f7410f102e6c",
      "transactionIndex": "0x24",
      "blockHash": "0x6f5ed752f7a093be6a9075a2b69544c379a81dca80fbbfd17f10a9c8a0093766",
      "blockNumber": "0x2517cc2",
      "gasUsed": "0xd6bf",
      "effectiveGasPrice": "0x5b8d80",
      "blobGasUsed": "0x364c",
      "from": "0xf471539c814e59323cce676435067470565e38fa",
      "to": "0xdfb4a6acf90a4476d1dafb4f9c999a98c54b1513",
      "contractAddress": null,
      "daFootprintGasScalar": "0x8b",
      "l1BaseFeeScalar": "0x44d",
      "l1BlobBaseFee": "0x1",
      "l1BlobBaseFeeScalar": "0xa118b",
      "l1Fee": "0x55",
      "l1GasPrice": "0xb",
      "l1GasUsed": "0x640"
    },
    {
      "status": "0x1",
      "cumulativeGasUsed": "0x89286e",
      "logs": [
        {
          "address": "0xdfb4a6acf90a4476d1dafb4f9c999a98c54b1513",
          "topics": [
            "0xe60708f6b66fedc0ecafb15e592a9d5a3284cf5c23a704486085053cea6fe8db",
            "0x0000000000000000000000000000000000000000000000000000000000000003",
            "0x0000000000000000000000000000000000000000000000000000000000000001"
          ],
          "data": "0x00000000000000000000000000000000000000000000000000000000000003ea0000000000000000000000000000000000000000000000000000000000000014000000000000000000000000000000000000000000000000000000000000000100000000000000000000000000000000000000000000000000000000000000020000000000000000000000000000000000000000000000000000000000000000",
          "blockHash": "0x6f5ed752f7a093be6a9075a2b69544c379a81dca80fbbfd17f10a9c8a0093766",
          "blockNumber": "0x2517cc2",
          "blockTimestamp": "0x69b65864",
          "transactionHash": "0xc7425d34cc35317a6032cd6bdbc999e3d7b5c3d6fab2b23343bd21d0fda05a65",
          "transactionIndex": "0x25",
          "logIndex": "0x135",
          "removed": false
        }
      ],
      "logsBloom": "0x00000000000000000000000800000000000000000000000000000000000000000000000000000000000000000000000000000000020000000000000000040000000000000000000000000000000000000000000000040000000000000000000000000000000000000000000000000000200000000000000000000000008000000000000000000200000000000000000000000000000000000000000000000000000000000000000000000000000000000000000000800000000000000000400000000000000000000000200000000000000000000000000000000000000040000000000000000000000000000000000000400000000000000000000000000000",
      "type": "0x2",
      "transactionHash": "0xc7425d34cc35317a6032cd6bdbc999e3d7b5c3d6fab2b23343bd21d0fda05a65",
      "transactionIndex": "0x25",
      "blockHash": "0x6f5ed752f7a093be6a9075a2b69544c379a81dca80fbbfd17f10a9c8a0093766",
      "blockNumber": "0x2517cc2",
      "gasUsed": "0xd6cb",
      "effectiveGasPrice": "0x5b8d80",
      "blobGasUsed": "0x364c",
      "from": "0xf471539c814e59323cce676435067470565e38fa",
      "to": "0xdfb4a6acf90a4476d1dafb4f9c999a98c54b1513",
      "contractAddress": null,
      "daFootprintGasScalar": "0x8b",
      "l1BaseFeeScalar": "0x44d",
      "l1BlobBaseFee": "0x1",
      "l1BlobBaseFeeScalar": "0xa118b",
      "l1Fee": "0x55",
      "l1GasPrice": "0xb",
      "l1GasUsed": "0x640"
    }
  ],
  "libraries": [],
  "pending": [],
  "returns": {},
  "timestamp": 1773557860,
  "chain": 84532,
  "commit": "9f7dc06"
}